{
  "contractName": "Parcel",
  "abi": [
    {
      "inputs": [],
      "stateMutability": "nonpayable",
      "type": "constructor"
    },
    {
      "anonymous": false,
      "inputs": [
        {
          "indexed": true,
          "internalType": "address",
          "name": "owner",
          "type": "address"
        },
        {
          "indexed": true,
          "internalType": "address",
          "name": "approved",
          "type": "address"
        },
        {
          "indexed": true,
          "internalType": "uint256",
          "name": "tokenId",
          "type": "uint256"
        }
      ],
      "name": "Approval",
      "type": "event"
    },
    {
      "anonymous": false,
      "inputs": [
        {
          "indexed": true,
          "internalType": "address",
          "name": "owner",
          "type": "address"
        },
        {
          "indexed": true,
          "internalType": "address",
          "name": "operator",
          "type": "address"
        },
        {
          "indexed": false,
          "internalType": "bool",
          "name": "approved",
          "type": "bool"
        }
      ],
      "name": "ApprovalForAll",
      "type": "event"
    },
    {
      "anonymous": false,
      "inputs": [
        {
          "indexed": true,
          "internalType": "address",
          "name": "from",
          "type": "address"
        },
        {
          "indexed": true,
          "internalType": "address",
          "name": "to",
          "type": "address"
        },
        {
          "indexed": true,
          "internalType": "uint256",
          "name": "tokenId",
          "type": "uint256"
        }
      ],
      "name": "Transfer",
      "type": "event"
    },
    {
      "inputs": [
        {
          "internalType": "address",
          "name": "to",
          "type": "address"
        },
        {
          "internalType": "uint256",
          "name": "tokenId",
          "type": "uint256"
        }
      ],
      "name": "approve",
      "outputs": [],
      "stateMutability": "nonpayable",
      "type": "function"
    },
    {
      "inputs": [
        {
          "internalType": "address",
          "name": "owner",
          "type": "address"
        }
      ],
      "name": "balanceOf",
      "outputs": [
        {
          "internalType": "uint256",
          "name": "",
          "type": "uint256"
        }
      ],
      "stateMutability": "view",
      "type": "function"
    },
    {
      "inputs": [
        {
          "internalType": "uint256",
          "name": "tokenId",
          "type": "uint256"
        }
      ],
      "name": "getApproved",
      "outputs": [
        {
          "internalType": "address",
          "name": "",
          "type": "address"
        }
      ],
      "stateMutability": "view",
      "type": "function"
    },
    {
      "inputs": [
        {
          "internalType": "address",
          "name": "owner",
          "type": "address"
        },
        {
          "internalType": "address",
          "name": "operator",
          "type": "address"
        }
      ],
      "name": "isApprovedForAll",
      "outputs": [
        {
          "internalType": "bool",
          "name": "",
          "type": "bool"
        }
      ],
      "stateMutability": "view",
      "type": "function"
    },
    {
      "inputs": [],
      "name": "name",
      "outputs": [
        {
          "internalType": "string",
          "name": "",
          "type": "string"
        }
      ],
      "stateMutability": "view",
      "type": "function"
    },
    {
      "inputs": [
        {
          "internalType": "uint256",
          "name": "tokenId",
          "type": "uint256"
        }
      ],
      "name": "ownerOf",
      "outputs": [
        {
          "internalType": "address",
          "name": "",
          "type": "address"
        }
      ],
      "stateMutability": "view",
      "type": "function"
    },
    {
      "inputs": [
        {
          "internalType": "address",
          "name": "from",
          "type": "address"
        },
        {
          "internalType": "address",
          "name": "to",
          "type": "address"
        },
        {
          "internalType": "uint256",
          "name": "tokenId",
          "type": "uint256"
        }
      ],
      "name": "safeTransferFrom",
      "outputs": [],
      "stateMutability": "nonpayable",
      "type": "function"
    },
    {
      "inputs": [
        {
          "internalType": "address",
          "name": "from",
          "type": "address"
        },
        {
          "internalType": "address",
          "name": "to",
          "type": "address"
        },
        {
          "internalType": "uint256",
          "name": "tokenId",
          "type": "uint256"
        },
        {
          "internalType": "bytes",
          "name": "_data",
          "type": "bytes"
        }
      ],
      "name": "safeTransferFrom",
      "outputs": [],
      "stateMutability": "nonpayable",
      "type": "function"
    },
    {
      "inputs": [
        {
          "internalType": "address",
          "name": "operator",
          "type": "address"
        },
        {
          "internalType": "bool",
          "name": "approved",
          "type": "bool"
        }
      ],
      "name": "setApprovalForAll",
      "outputs": [],
      "stateMutability": "nonpayable",
      "type": "function"
    },
    {
      "inputs": [],
      "name": "symbol",
      "outputs": [
        {
          "internalType": "string",
          "name": "",
          "type": "string"
        }
      ],
      "stateMutability": "view",
      "type": "function"
    },
    {
      "inputs": [
        {
          "internalType": "uint256",
          "name": "index",
          "type": "uint256"
        }
      ],
      "name": "tokenByIndex",
      "outputs": [
        {
          "internalType": "uint256",
          "name": "",
          "type": "uint256"
        }
      ],
      "stateMutability": "view",
      "type": "function"
    },
    {
      "inputs": [
        {
          "internalType": "address",
          "name": "owner",
          "type": "address"
        },
        {
          "internalType": "uint256",
          "name": "index",
          "type": "uint256"
        }
      ],
      "name": "tokenOfOwnerByIndex",
      "outputs": [
        {
          "internalType": "uint256",
          "name": "",
          "type": "uint256"
        }
      ],
      "stateMutability": "view",
      "type": "function"
    },
    {
      "inputs": [],
      "name": "totalSupply",
      "outputs": [
        {
          "internalType": "uint256",
          "name": "",
          "type": "uint256"
        }
      ],
      "stateMutability": "view",
      "type": "function"
    },
    {
      "inputs": [
        {
          "internalType": "address",
          "name": "from",
          "type": "address"
        },
        {
          "internalType": "address",
          "name": "to",
          "type": "address"
        },
        {
          "internalType": "uint256",
          "name": "tokenId",
          "type": "uint256"
        }
      ],
      "name": "transferFrom",
      "outputs": [],
      "stateMutability": "nonpayable",
      "type": "function"
    },
    {
      "inputs": [
        {
          "internalType": "address",
          "name": "_to",
          "type": "address"
        },
        {
          "internalType": "string",
          "name": "uuid",
          "type": "string"
        }
      ],
      "name": "discover",
      "outputs": [
        {
          "internalType": "uint256",
          "name": "",
          "type": "uint256"
        }
      ],
      "stateMutability": "nonpayable",
      "type": "function"
    },
    {
      "inputs": [
        {
          "internalType": "uint256",
          "name": "tokenId",
          "type": "uint256"
        }
      ],
      "name": "tokenURI",
      "outputs": [
        {
          "internalType": "string",
          "name": "",
          "type": "string"
        }
      ],
      "stateMutability": "view",
      "type": "function"
    },
    {
      "inputs": [
        {
          "internalType": "bytes4",
          "name": "interfaceId",
          "type": "bytes4"
        }
      ],
      "name": "supportsInterface",
      "outputs": [
        {
          "internalType": "bool",
          "name": "",
          "type": "bool"
        }
      ],
      "stateMutability": "view",
      "type": "function"
    }
  ],
  "bytecode": "0x60806040523480156200001157600080fd5b506040518060400160405280600c81526020017f50617263656c20546f6b656e00000000000000000000000000000000000000008152506040518060400160405280600681526020017f50415243454c0000000000000000000000000000000000000000000000000000815250816000908051906020019062000096929190620000b8565b508060019080519060200190620000af929190620000b8565b505050620001cd565b828054620000c69062000168565b90600052602060002090601f016020900481019282620000ea576000855562000136565b82601f106200010557805160ff191683800117855562000136565b8280016001018555821562000136579182015b828111156200013557825182559160200191906001019062000118565b5b50905062000145919062000149565b5090565b5b80821115620001645760008160009055506001016200014a565b5090565b600060028204905060018216806200018157607f821691505b602082108114156200019857620001976200019e565b5b50919050565b7f4e487b7100000000000000000000000000000000000000000000000000000000600052602260045260246000fd5b61346380620001dd6000396000f3fe608060405234801561001057600080fd5b506004361061010b5760003560e01c80634f6ccce7116100a2578063a22cb46511610071578063a22cb465146102de578063b88d4fde146102fa578063c87b56dd14610316578063e985e9c514610346578063f39a5986146103765761010b565b80634f6ccce7146102305780636352211e1461026057806370a082311461029057806395d89b41146102c05761010b565b806318160ddd116100de57806318160ddd146101aa57806323b872dd146101c85780632f745c59146101e457806342842e0e146102145761010b565b806301ffc9a71461011057806306fdde0314610140578063081812fc1461015e578063095ea7b31461018e575b600080fd5b61012a600480360381019061012591906123bd565b6103a6565b6040516101379190612809565b60405180910390f35b6101486103b8565b6040516101559190612824565b60405180910390f35b6101786004803603810190610173919061240f565b61044a565b60405161018591906127a2565b60405180910390f35b6101a860048036038101906101a39190612381565b6104cf565b005b6101b26105e7565b6040516101bf9190612a86565b60405180910390f35b6101e260048036038101906101dd9190612227565b6105f4565b005b6101fe60048036038101906101f99190612381565b610654565b60405161020b9190612a86565b60405180910390f35b61022e60048036038101906102299190612227565b6106f9565b005b61024a6004803603810190610245919061240f565b610719565b6040516102579190612a86565b60405180910390f35b61027a6004803603810190610275919061240f565b6107b0565b60405161028791906127a2565b60405180910390f35b6102aa60048036038101906102a591906121c2565b610862565b6040516102b79190612a86565b60405180910390f35b6102c861091a565b6040516102d59190612824565b60405180910390f35b6102f860048036038101906102f391906122f1565b6109ac565b005b610314600480360381019061030f9190612276565b610b2d565b005b610330600480360381019061032b919061240f565b610b8f565b60405161033d9190612824565b60405180910390f35b610360600480360381019061035b91906121eb565b610ba1565b60405161036d9190612809565b60405180910390f35b610390600480360381019061038b919061232d565b610c35565b60405161039d9190612a86565b60405180910390f35b60006103b182610c6d565b9050919050565b6060600080546103c790612cdc565b80601f01602080910402602001604051908101604052809291908181526020018280546103f390612cdc565b80156104405780601f1061041557610100808354040283529160200191610440565b820191906000526020600020905b81548152906001019060200180831161042357829003601f168201915b5050505050905090565b600061045582610ce7565b610494576040517f08c379a000000000000000000000000000000000000000000000000000000000815260040161048b906129c6565b60405180910390fd5b6004600083815260200190815260200160002060009054906101000a900473ffffffffffffffffffffffffffffffffffffffff169050919050565b60006104da826107b0565b90508073ffffffffffffffffffffffffffffffffffffffff168373ffffffffffffffffffffffffffffffffffffffff16141561054b576040517f08c379a000000000000000000000000000000000000000000000000000000000815260040161054290612a26565b60405180910390fd5b8073ffffffffffffffffffffffffffffffffffffffff1661056a610d53565b73ffffffffffffffffffffffffffffffffffffffff161480610599575061059881610593610d53565b610ba1565b5b6105d8576040517f08c379a00000000000000000000000000000000000000000000000000000000081526004016105cf90612906565b60405180910390fd5b6105e28383610d5b565b505050565b6000600880549050905090565b6106056105ff610d53565b82610e14565b610644576040517f08c379a000000000000000000000000000000000000000000000000000000000815260040161063b90612a46565b60405180910390fd5b61064f838383610ef2565b505050565b600061065f83610862565b82106106a0576040517f08c379a000000000000000000000000000000000000000000000000000000000815260040161069790612846565b60405180910390fd5b600660008473ffffffffffffffffffffffffffffffffffffffff1673ffffffffffffffffffffffffffffffffffffffff168152602001908152602001600020600083815260200190815260200160002054905092915050565b61071483838360405180602001604052806000815250610b2d565b505050565b60006107236105e7565b8210610764576040517f08c379a000000000000000000000000000000000000000000000000000000000815260040161075b90612a66565b60405180910390fd5b6008828154811061079e577f4e487b7100000000000000000000000000000000000000000000000000000000600052603260045260246000fd5b90600052602060002001549050919050565b6000806002600084815260200190815260200160002060009054906101000a900473ffffffffffffffffffffffffffffffffffffffff169050600073ffffffffffffffffffffffffffffffffffffffff168173ffffffffffffffffffffffffffffffffffffffff161415610859576040517f08c379a000000000000000000000000000000000000000000000000000000000815260040161085090612946565b60405180910390fd5b80915050919050565b60008073ffffffffffffffffffffffffffffffffffffffff168273ffffffffffffffffffffffffffffffffffffffff1614156108d3576040517f08c379a00000000000000000000000000000000000000000000000000000000081526004016108ca90612926565b60405180910390fd5b600360008373ffffffffffffffffffffffffffffffffffffffff1673ffffffffffffffffffffffffffffffffffffffff168152602001908152602001600020549050919050565b60606001805461092990612cdc565b80601f016020809104026020016040519081016040528092919081815260200182805461095590612cdc565b80156109a25780601f10610977576101008083540402835291602001916109a2565b820191906000526020600020905b81548152906001019060200180831161098557829003601f168201915b5050505050905090565b6109b4610d53565b73ffffffffffffffffffffffffffffffffffffffff168273ffffffffffffffffffffffffffffffffffffffff161415610a22576040517f08c379a0000000000000000000000000000000000000000000000000000000008152600401610a19906128c6565b60405180910390fd5b8060056000610a2f610d53565b73ffffffffffffffffffffffffffffffffffffffff1673ffffffffffffffffffffffffffffffffffffffff16815260200190815260200160002060008473ffffffffffffffffffffffffffffffffffffffff1673ffffffffffffffffffffffffffffffffffffffff16815260200190815260200160002060006101000a81548160ff0219169083151502179055508173ffffffffffffffffffffffffffffffffffffffff16610adc610d53565b73ffffffffffffffffffffffffffffffffffffffff167f17307eab39ab6107e8899845ad3d59bd9653f200f220920489ca2b5937696c3183604051610b219190612809565b60405180910390a35050565b610b3e610b38610d53565b83610e14565b610b7d576040517f08c379a0000000000000000000000000000000000000000000000000000000008152600401610b7490612a46565b60405180910390fd5b610b898484848461114e565b50505050565b6060610b9a826111aa565b9050919050565b6000600560008473ffffffffffffffffffffffffffffffffffffffff1673ffffffffffffffffffffffffffffffffffffffff16815260200190815260200160002060008373ffffffffffffffffffffffffffffffffffffffff1673ffffffffffffffffffffffffffffffffffffffff16815260200190815260200160002060009054906101000a900460ff16905092915050565b6000610c41600b6112fc565b6000610c4d600b611312565b9050610c598482611320565b610c63818461133e565b8091505092915050565b60007f780e9d63000000000000000000000000000000000000000000000000000000007bffffffffffffffffffffffffffffffffffffffffffffffffffffffff1916827bffffffffffffffffffffffffffffffffffffffffffffffffffffffff19161480610ce05750610cdf826113b2565b5b9050919050565b60008073ffffffffffffffffffffffffffffffffffffffff166002600084815260200190815260200160002060009054906101000a900473ffffffffffffffffffffffffffffffffffffffff1673ffffffffffffffffffffffffffffffffffffffff1614159050919050565b600033905090565b816004600083815260200190815260200160002060006101000a81548173ffffffffffffffffffffffffffffffffffffffff021916908373ffffffffffffffffffffffffffffffffffffffff160217905550808273ffffffffffffffffffffffffffffffffffffffff16610dce836107b0565b73ffffffffffffffffffffffffffffffffffffffff167f8c5be1e5ebec7d5bd14f71427d1e84f3dd0314c0f7b2291e5b200ac8c7c3b92560405160405180910390a45050565b6000610e1f82610ce7565b610e5e576040517f08c379a0000000000000000000000000000000000000000000000000000000008152600401610e55906128e6565b60405180910390fd5b6000610e69836107b0565b90508073ffffffffffffffffffffffffffffffffffffffff168473ffffffffffffffffffffffffffffffffffffffff161480610ed857508373ffffffffffffffffffffffffffffffffffffffff16610ec08461044a565b73ffffffffffffffffffffffffffffffffffffffff16145b80610ee95750610ee88185610ba1565b5b91505092915050565b8273ffffffffffffffffffffffffffffffffffffffff16610f12826107b0565b73ffffffffffffffffffffffffffffffffffffffff1614610f68576040517f08c379a0000000000000000000000000000000000000000000000000000000008152600401610f5f906129e6565b60405180910390fd5b600073ffffffffffffffffffffffffffffffffffffffff168273ffffffffffffffffffffffffffffffffffffffff161415610fd8576040517f08c379a0000000000000000000000000000000000000000000000000000000008152600401610fcf906128a6565b60405180910390fd5b610fe3838383611494565b610fee600082610d5b565b6001600360008573ffffffffffffffffffffffffffffffffffffffff1673ffffffffffffffffffffffffffffffffffffffff168152602001908152602001600020600082825461103e9190612bf2565b925050819055506001600360008473ffffffffffffffffffffffffffffffffffffffff1673ffffffffffffffffffffffffffffffffffffffff16815260200190815260200160002060008282546110959190612b6b565b92505081905550816002600083815260200190815260200160002060006101000a81548173ffffffffffffffffffffffffffffffffffffffff021916908373ffffffffffffffffffffffffffffffffffffffff160217905550808273ffffffffffffffffffffffffffffffffffffffff168473ffffffffffffffffffffffffffffffffffffffff167fddf252ad1be2c89b69c2b068fc378daa952ba7f163c4a11628f55a4df523b3ef60405160405180910390a4505050565b611159848484610ef2565b611165848484846114a4565b6111a4576040517f08c379a000000000000000000000000000000000000000000000000000000000815260040161119b90612866565b60405180910390fd5b50505050565b60606111b582610ce7565b6111f4576040517f08c379a00000000000000000000000000000000000000000000000000000000081526004016111eb906129a6565b60405180910390fd5b6000600a6000848152602001908152602001600020805461121490612cdc565b80601f016020809104026020016040519081016040528092919081815260200182805461124090612cdc565b801561128d5780601f106112625761010080835404028352916020019161128d565b820191906000526020600020905b81548152906001019060200180831161127057829003601f168201915b50505050509050600061129e61163b565b90506000815114156112b45781925050506112f7565b6000825111156112e95780826040516020016112d192919061277e565b604051602081830303815290604052925050506112f7565b6112f28461165b565b925050505b919050565b6001816000016000828254019250508190555050565b600081600001549050919050565b61133a828260405180602001604052806000815250611702565b5050565b61134782610ce7565b611386576040517f08c379a000000000000000000000000000000000000000000000000000000000815260040161137d90612966565b60405180910390fd5b80600a600084815260200190815260200160002090805190602001906113ad929190611fe6565b505050565b60007f80ac58cd000000000000000000000000000000000000000000000000000000007bffffffffffffffffffffffffffffffffffffffffffffffffffffffff1916827bffffffffffffffffffffffffffffffffffffffffffffffffffffffff1916148061147d57507f5b5e139f000000000000000000000000000000000000000000000000000000007bffffffffffffffffffffffffffffffffffffffffffffffffffffffff1916827bffffffffffffffffffffffffffffffffffffffffffffffffffffffff1916145b8061148d575061148c8261175d565b5b9050919050565b61149f8383836117c7565b505050565b60006114c58473ffffffffffffffffffffffffffffffffffffffff166118db565b1561162e578373ffffffffffffffffffffffffffffffffffffffff1663150b7a026114ee610d53565b8786866040518563ffffffff1660e01b815260040161151094939291906127bd565b602060405180830381600087803b15801561152a57600080fd5b505af192505050801561155b57506040513d601f19601f8201168201806040525081019061155891906123e6565b60015b6115de573d806000811461158b576040519150601f19603f3d011682016040523d82523d6000602084013e611590565b606091505b506000815114156115d6576040517f08c379a00000000000000000000000000000000000000000000000000000000081526004016115cd90612866565b60405180910390fd5b805181602001fd5b63150b7a0260e01b7bffffffffffffffffffffffffffffffffffffffffffffffffffffffff1916817bffffffffffffffffffffffffffffffffffffffffffffffffffffffff191614915050611633565b600190505b949350505050565b60606040518060600160405280602f81526020016133ff602f9139905090565b606061166682610ce7565b6116a5576040517f08c379a000000000000000000000000000000000000000000000000000000000815260040161169c90612a06565b60405180910390fd5b60006116af61163b565b905060008151116116cf57604051806020016040528060008152506116fa565b806116d9846118ee565b6040516020016116ea92919061277e565b6040516020818303038152906040525b915050919050565b61170c8383611a9b565b61171960008484846114a4565b611758576040517f08c379a000000000000000000000000000000000000000000000000000000000815260040161174f90612866565b60405180910390fd5b505050565b60007f01ffc9a7000000000000000000000000000000000000000000000000000000007bffffffffffffffffffffffffffffffffffffffffffffffffffffffff1916827bffffffffffffffffffffffffffffffffffffffffffffffffffffffff1916149050919050565b6117d2838383611c69565b600073ffffffffffffffffffffffffffffffffffffffff168373ffffffffffffffffffffffffffffffffffffffff1614156118155761181081611c6e565b611854565b8173ffffffffffffffffffffffffffffffffffffffff168373ffffffffffffffffffffffffffffffffffffffff1614611853576118528382611cb7565b5b5b600073ffffffffffffffffffffffffffffffffffffffff168273ffffffffffffffffffffffffffffffffffffffff1614156118975761189281611e24565b6118d6565b8273ffffffffffffffffffffffffffffffffffffffff168273ffffffffffffffffffffffffffffffffffffffff16146118d5576118d48282611f67565b5b5b505050565b600080823b905060008111915050919050565b60606000821415611936576040518060400160405280600181526020017f30000000000000000000000000000000000000000000000000000000000000008152509050611a96565b600082905060005b6000821461196857808061195190612d3f565b915050600a826119619190612bc1565b915061193e565b60008167ffffffffffffffff8111156119aa577f4e487b7100000000000000000000000000000000000000000000000000000000600052604160045260246000fd5b6040519080825280601f01601f1916602001820160405280156119dc5781602001600182028036833780820191505090505b5090505b60008514611a8f576001826119f59190612bf2565b9150600a85611a049190612d88565b6030611a109190612b6b565b60f81b818381518110611a4c577f4e487b7100000000000000000000000000000000000000000000000000000000600052603260045260246000fd5b60200101907effffffffffffffffffffffffffffffffffffffffffffffffffffffffffffff1916908160001a905350600a85611a889190612bc1565b94506119e0565b8093505050505b919050565b600073ffffffffffffffffffffffffffffffffffffffff168273ffffffffffffffffffffffffffffffffffffffff161415611b0b576040517f08c379a0000000000000000000000000000000000000000000000000000000008152600401611b0290612986565b60405180910390fd5b611b1481610ce7565b15611b54576040517f08c379a0000000000000000000000000000000000000000000000000000000008152600401611b4b90612886565b60405180910390fd5b611b6060008383611494565b6001600360008473ffffffffffffffffffffffffffffffffffffffff1673ffffffffffffffffffffffffffffffffffffffff1681526020019081526020016000206000828254611bb09190612b6b565b92505081905550816002600083815260200190815260200160002060006101000a81548173ffffffffffffffffffffffffffffffffffffffff021916908373ffffffffffffffffffffffffffffffffffffffff160217905550808273ffffffffffffffffffffffffffffffffffffffff16600073ffffffffffffffffffffffffffffffffffffffff167fddf252ad1be2c89b69c2b068fc378daa952ba7f163c4a11628f55a4df523b3ef60405160405180910390a45050565b505050565b6008805490506009600083815260200190815260200160002081905550600881908060018154018082558091505060019003906000526020600020016000909190919091505550565b60006001611cc484610862565b611cce9190612bf2565b9050600060076000848152602001908152602001600020549050818114611db3576000600660008673ffffffffffffffffffffffffffffffffffffffff1673ffffffffffffffffffffffffffffffffffffffff168152602001908152602001600020600084815260200190815260200160002054905080600660008773ffffffffffffffffffffffffffffffffffffffff1673ffffffffffffffffffffffffffffffffffffffff168152602001908152602001600020600084815260200190815260200160002081905550816007600083815260200190815260200160002081905550505b6007600084815260200190815260200160002060009055600660008573ffffffffffffffffffffffffffffffffffffffff1673ffffffffffffffffffffffffffffffffffffffff16815260200190815260200160002060008381526020019081526020016000206000905550505050565b60006001600880549050611e389190612bf2565b9050600060096000848152602001908152602001600020549050600060088381548110611e8e577f4e487b7100000000000000000000000000000000000000000000000000000000600052603260045260246000fd5b906000526020600020015490508060088381548110611ed6577f4e487b7100000000000000000000000000000000000000000000000000000000600052603260045260246000fd5b906000526020600020018190555081600960008381526020019081526020016000208190555060096000858152602001908152602001600020600090556008805480611f4b577f4e487b7100000000000000000000000000000000000000000000000000000000600052603160045260246000fd5b6001900381819060005260206000200160009055905550505050565b6000611f7283610862565b905081600660008573ffffffffffffffffffffffffffffffffffffffff1673ffffffffffffffffffffffffffffffffffffffff168152602001908152602001600020600083815260200190815260200160002081905550806007600084815260200190815260200160002081905550505050565b828054611ff290612cdc565b90600052602060002090601f016020900481019282612014576000855561205b565b82601f1061202d57805160ff191683800117855561205b565b8280016001018555821561205b579182015b8281111561205a57825182559160200191906001019061203f565b5b509050612068919061206c565b5090565b5b8082111561208557600081600090555060010161206d565b5090565b600061209c61209784612ac6565b612aa1565b9050828152602081018484840111156120b457600080fd5b6120bf848285612c9a565b509392505050565b60006120da6120d584612af7565b612aa1565b9050828152602081018484840111156120f257600080fd5b6120fd848285612c9a565b509392505050565b600081359050612114816133a2565b92915050565b600081359050612129816133b9565b92915050565b60008135905061213e816133d0565b92915050565b600081519050612153816133d0565b92915050565b600082601f83011261216a57600080fd5b813561217a848260208601612089565b91505092915050565b600082601f83011261219457600080fd5b81356121a48482602086016120c7565b91505092915050565b6000813590506121bc816133e7565b92915050565b6000602082840312156121d457600080fd5b60006121e284828501612105565b91505092915050565b600080604083850312156121fe57600080fd5b600061220c85828601612105565b925050602061221d85828601612105565b9150509250929050565b60008060006060848603121561223c57600080fd5b600061224a86828701612105565b935050602061225b86828701612105565b925050604061226c868287016121ad565b9150509250925092565b6000806000806080858703121561228c57600080fd5b600061229a87828801612105565b94505060206122ab87828801612105565b93505060406122bc878288016121ad565b925050606085013567ffffffffffffffff8111156122d957600080fd5b6122e587828801612159565b91505092959194509250565b6000806040838503121561230457600080fd5b600061231285828601612105565b92505060206123238582860161211a565b9150509250929050565b6000806040838503121561234057600080fd5b600061234e85828601612105565b925050602083013567ffffffffffffffff81111561236b57600080fd5b61237785828601612183565b9150509250929050565b6000806040838503121561239457600080fd5b60006123a285828601612105565b92505060206123b3858286016121ad565b9150509250929050565b6000602082840312156123cf57600080fd5b60006123dd8482850161212f565b91505092915050565b6000602082840312156123f857600080fd5b600061240684828501612144565b91505092915050565b60006020828403121561242157600080fd5b600061242f848285016121ad565b91505092915050565b61244181612c26565b82525050565b61245081612c38565b82525050565b600061246182612b28565b61246b8185612b3e565b935061247b818560208601612ca9565b61248481612e75565b840191505092915050565b600061249a82612b33565b6124a48185612b4f565b93506124b4818560208601612ca9565b6124bd81612e75565b840191505092915050565b60006124d382612b33565b6124dd8185612b60565b93506124ed818560208601612ca9565b80840191505092915050565b6000612506602b83612b4f565b915061251182612e86565b604082019050919050565b6000612529603283612b4f565b915061253482612ed5565b604082019050919050565b600061254c601c83612b4f565b915061255782612f24565b602082019050919050565b600061256f602483612b4f565b915061257a82612f4d565b604082019050919050565b6000612592601983612b4f565b915061259d82612f9c565b602082019050919050565b60006125b5602c83612b4f565b91506125c082612fc5565b604082019050919050565b60006125d8603883612b4f565b91506125e382613014565b604082019050919050565b60006125fb602a83612b4f565b915061260682613063565b604082019050919050565b600061261e602983612b4f565b9150612629826130b2565b604082019050919050565b6000612641602e83612b4f565b915061264c82613101565b604082019050919050565b6000612664602083612b4f565b915061266f82613150565b602082019050919050565b6000612687603183612b4f565b915061269282613179565b604082019050919050565b60006126aa602c83612b4f565b91506126b5826131c8565b604082019050919050565b60006126cd602983612b4f565b91506126d882613217565b604082019050919050565b60006126f0602f83612b4f565b91506126fb82613266565b604082019050919050565b6000612713602183612b4f565b915061271e826132b5565b604082019050919050565b6000612736603183612b4f565b915061274182613304565b604082019050919050565b6000612759602c83612b4f565b915061276482613353565b604082019050919050565b61277881612c90565b82525050565b600061278a82856124c8565b915061279682846124c8565b91508190509392505050565b60006020820190506127b76000830184612438565b92915050565b60006080820190506127d26000830187612438565b6127df6020830186612438565b6127ec604083018561276f565b81810360608301526127fe8184612456565b905095945050505050565b600060208201905061281e6000830184612447565b92915050565b6000602082019050818103600083015261283e818461248f565b905092915050565b6000602082019050818103600083015261285f816124f9565b9050919050565b6000602082019050818103600083015261287f8161251c565b9050919050565b6000602082019050818103600083015261289f8161253f565b9050919050565b600060208201905081810360008301526128bf81612562565b9050919050565b600060208201905081810360008301526128df81612585565b9050919050565b600060208201905081810360008301526128ff816125a8565b9050919050565b6000602082019050818103600083015261291f816125cb565b9050919050565b6000602082019050818103600083015261293f816125ee565b9050919050565b6000602082019050818103600083015261295f81612611565b9050919050565b6000602082019050818103600083015261297f81612634565b9050919050565b6000602082019050818103600083015261299f81612657565b9050919050565b600060208201905081810360008301526129bf8161267a565b9050919050565b600060208201905081810360008301526129df8161269d565b9050919050565b600060208201905081810360008301526129ff816126c0565b9050919050565b60006020820190508181036000830152612a1f816126e3565b9050919050565b60006020820190508181036000830152612a3f81612706565b9050919050565b60006020820190508181036000830152612a5f81612729565b9050919050565b60006020820190508181036000830152612a7f8161274c565b9050919050565b6000602082019050612a9b600083018461276f565b92915050565b6000612aab612abc565b9050612ab78282612d0e565b919050565b6000604051905090565b600067ffffffffffffffff821115612ae157612ae0612e46565b5b612aea82612e75565b9050602081019050919050565b600067ffffffffffffffff821115612b1257612b11612e46565b5b612b1b82612e75565b9050602081019050919050565b600081519050919050565b600081519050919050565b600082825260208201905092915050565b600082825260208201905092915050565b600081905092915050565b6000612b7682612c90565b9150612b8183612c90565b9250827fffffffffffffffffffffffffffffffffffffffffffffffffffffffffffffffff03821115612bb657612bb5612db9565b5b828201905092915050565b6000612bcc82612c90565b9150612bd783612c90565b925082612be757612be6612de8565b5b828204905092915050565b6000612bfd82612c90565b9150612c0883612c90565b925082821015612c1b57612c1a612db9565b5b828203905092915050565b6000612c3182612c70565b9050919050565b60008115159050919050565b60007fffffffff0000000000000000000000000000000000000000000000000000000082169050919050565b600073ffffffffffffffffffffffffffffffffffffffff82169050919050565b6000819050919050565b82818337600083830152505050565b60005b83811015612cc7578082015181840152602081019050612cac565b83811115612cd6576000848401525b50505050565b60006002820490506001821680612cf457607f821691505b60208210811415612d0857612d07612e17565b5b50919050565b612d1782612e75565b810181811067ffffffffffffffff82111715612d3657612d35612e46565b5b80604052505050565b6000612d4a82612c90565b91507fffffffffffffffffffffffffffffffffffffffffffffffffffffffffffffffff821415612d7d57612d7c612db9565b5b600182019050919050565b6000612d9382612c90565b9150612d9e83612c90565b925082612dae57612dad612de8565b5b828206905092915050565b7f4e487b7100000000000000000000000000000000000000000000000000000000600052601160045260246000fd5b7f4e487b7100000000000000000000000000000000000000000000000000000000600052601260045260246000fd5b7f4e487b7100000000000000000000000000000000000000000000000000000000600052602260045260246000fd5b7f4e487b7100000000000000000000000000000000000000000000000000000000600052604160045260246000fd5b6000601f19601f8301169050919050565b7f455243373231456e756d657261626c653a206f776e657220696e646578206f7560008201527f74206f6620626f756e6473000000000000000000000000000000000000000000602082015250565b7f4552433732313a207472616e7366657220746f206e6f6e20455243373231526560008201527f63656976657220696d706c656d656e7465720000000000000000000000000000602082015250565b7f4552433732313a20746f6b656e20616c7265616479206d696e74656400000000600082015250565b7f4552433732313a207472616e7366657220746f20746865207a65726f2061646460008201527f7265737300000000000000000000000000000000000000000000000000000000602082015250565b7f4552433732313a20617070726f766520746f2063616c6c657200000000000000600082015250565b7f4552433732313a206f70657261746f7220717565727920666f72206e6f6e657860008201527f697374656e7420746f6b656e0000000000000000000000000000000000000000602082015250565b7f4552433732313a20617070726f76652063616c6c6572206973206e6f74206f7760008201527f6e6572206e6f7220617070726f76656420666f7220616c6c0000000000000000602082015250565b7f4552433732313a2062616c616e636520717565727920666f7220746865207a6560008201527f726f206164647265737300000000000000000000000000000000000000000000602082015250565b7f4552433732313a206f776e657220717565727920666f72206e6f6e657869737460008201527f656e7420746f6b656e0000000000000000000000000000000000000000000000602082015250565b7f45524337323155524953746f726167653a2055524920736574206f66206e6f6e60008201527f6578697374656e7420746f6b656e000000000000000000000000000000000000602082015250565b7f4552433732313a206d696e7420746f20746865207a65726f2061646472657373600082015250565b7f45524337323155524953746f726167653a2055524920717565727920666f722060008201527f6e6f6e6578697374656e7420746f6b656e000000000000000000000000000000602082015250565b7f4552433732313a20617070726f76656420717565727920666f72206e6f6e657860008201527f697374656e7420746f6b656e0000000000000000000000000000000000000000602082015250565b7f4552433732313a207472616e73666572206f6620746f6b656e2074686174206960008201527f73206e6f74206f776e0000000000000000000000000000000000000000000000602082015250565b7f4552433732314d657461646174613a2055524920717565727920666f72206e6f60008201527f6e6578697374656e7420746f6b656e0000000000000000000000000000000000602082015250565b7f4552433732313a20617070726f76616c20746f2063757272656e74206f776e6560008201527f7200000000000000000000000000000000000000000000000000000000000000602082015250565b7f4552433732313a207472616e736665722063616c6c6572206973206e6f74206f60008201527f776e6572206e6f7220617070726f766564000000000000000000000000000000602082015250565b7f455243373231456e756d657261626c653a20676c6f62616c20696e646578206f60008201527f7574206f6620626f756e64730000000000000000000000000000000000000000602082015250565b6133ab81612c26565b81146133b657600080fd5b50565b6133c281612c38565b81146133cd57600080fd5b50565b6133d981612c44565b81146133e457600080fd5b50565b6133f081612c90565b81146133fb57600080fd5b5056fe68747470733a2f2f73746f726167652e676f6f676c65617069732e636f6d2f70617263656c2d6d657461646174612fa2646970667358221220eb15136dc55b20378060a5acfab8ad94fc8c7376d0bff513e1e6ec37a5f0776a64736f6c63430008040033",
  "immutableReferences": {},
  "source": "// SPDX-License-Identifier: MIT\r\npragma solidity >=0.8.0 <0.9.0;\r\n\r\nimport '@openzeppelin/contracts/token/ERC721/ERC721.sol';\r\nimport '@openzeppelin/contracts/token/ERC721/extensions/ERC721Enumerable.sol';\r\nimport '@openzeppelin/contracts/token/ERC721/extensions/ERC721URIStorage.sol';\r\nimport \"@openzeppelin/contracts/utils/Counters.sol\";\r\nimport \"@openzeppelin/contracts/utils/Strings.sol\";\r\n\r\ncontract Parcel is ERC721, ERC721Enumerable, ERC721URIStorage {\r\n    using Counters for Counters.Counter;\r\n    Counters.Counter private _tokenIds;\r\n\r\n    constructor() ERC721(\"Parcel Token\", \"PARCEL\") {\r\n    }\r\n\r\n    function discover(address _to, string memory uuid) public returns(uint256) {\r\n        _tokenIds.increment();\r\n        uint256 discoveredId = _tokenIds.current();\r\n        _safeMint(_to, discoveredId);\r\n        _setTokenURI(discoveredId, uuid);\r\n        return discoveredId;\r\n    }\r\n\r\n    function _beforeTokenTransfer(address from, address to, uint256 tokenId) internal override(ERC721, ERC721Enumerable) {\r\n        super._beforeTokenTransfer(from, to, tokenId);\r\n    }\r\n\r\n    function _burn(uint256 tokenId) internal override(ERC721, ERC721URIStorage) {\r\n        super._burn(tokenId);\r\n    }\r\n\r\n    function tokenURI(uint256 tokenId)\r\n        public\r\n        view\r\n        override(ERC721, ERC721URIStorage)\r\n        returns (string memory)\r\n    {\r\n        return super.tokenURI(tokenId);\r\n    }\r\n\r\n    function supportsInterface(bytes4 interfaceId)\r\n        public\r\n        view\r\n        override(ERC721, ERC721Enumerable)\r\n        returns (bool)\r\n    {\r\n        return super.supportsInterface(interfaceId);\r\n    }\r\n\r\n    function _baseURI() internal pure override returns (string memory) {\r\n        return \"https://storage.googleapis.com/parcel-metadata/\";\r\n    }\r\n}\r\n",
  "sourcePath": "C:/Users/Conor/Documents/projects/columbus/contracts/Parcel.sol",
  "compiler": {
    "name": "solc",
    "version": "0.8.4+commit.c7e474f2.Emscripten.clang"
  },
  "schemaVersion": "3.4.1",
  "updatedAt": "2021-05-27T20:38:25.778Z",
  "devdoc": {
    "kind": "dev",
    "methods": {
      "approve(address,uint256)": {
        "details": "See {IERC721-approve}."
      },
      "balanceOf(address)": {
        "details": "See {IERC721-balanceOf}."
      },
      "getApproved(uint256)": {
        "details": "See {IERC721-getApproved}."
      },
      "isApprovedForAll(address,address)": {
        "details": "See {IERC721-isApprovedForAll}."
      },
      "name()": {
        "details": "See {IERC721Metadata-name}."
      },
      "ownerOf(uint256)": {
        "details": "See {IERC721-ownerOf}."
      },
      "safeTransferFrom(address,address,uint256)": {
        "details": "See {IERC721-safeTransferFrom}."
      },
      "safeTransferFrom(address,address,uint256,bytes)": {
        "details": "See {IERC721-safeTransferFrom}."
      },
      "setApprovalForAll(address,bool)": {
        "details": "See {IERC721-setApprovalForAll}."
      },
      "symbol()": {
        "details": "See {IERC721Metadata-symbol}."
      },
      "tokenByIndex(uint256)": {
        "details": "See {IERC721Enumerable-tokenByIndex}."
      },
      "tokenOfOwnerByIndex(address,uint256)": {
        "details": "See {IERC721Enumerable-tokenOfOwnerByIndex}."
      },
      "totalSupply()": {
        "details": "See {IERC721Enumerable-totalSupply}."
      },
      "transferFrom(address,address,uint256)": {
        "details": "See {IERC721-transferFrom}."
      }
    },
    "version": 1
  },
  "userdoc": {
    "kind": "user",
    "methods": {},
    "version": 1
  }
}