{
  "contractName": "Parcel",
  "abi": [
    {
      "inputs": [],
      "stateMutability": "nonpayable",
      "type": "constructor"
    },
    {
      "anonymous": false,
      "inputs": [
        {
          "indexed": true,
          "internalType": "address",
          "name": "owner",
          "type": "address"
        },
        {
          "indexed": true,
          "internalType": "address",
          "name": "approved",
          "type": "address"
        },
        {
          "indexed": true,
          "internalType": "uint256",
          "name": "tokenId",
          "type": "uint256"
        }
      ],
      "name": "Approval",
      "type": "event"
    },
    {
      "anonymous": false,
      "inputs": [
        {
          "indexed": true,
          "internalType": "address",
          "name": "owner",
          "type": "address"
        },
        {
          "indexed": true,
          "internalType": "address",
          "name": "operator",
          "type": "address"
        },
        {
          "indexed": false,
          "internalType": "bool",
          "name": "approved",
          "type": "bool"
        }
      ],
      "name": "ApprovalForAll",
      "type": "event"
    },
    {
      "anonymous": false,
      "inputs": [
        {
          "indexed": true,
          "internalType": "address",
          "name": "from",
          "type": "address"
        },
        {
          "indexed": true,
          "internalType": "address",
          "name": "to",
          "type": "address"
        },
        {
          "indexed": true,
          "internalType": "uint256",
          "name": "tokenId",
          "type": "uint256"
        }
      ],
      "name": "Transfer",
      "type": "event"
    },
    {
      "inputs": [
        {
          "internalType": "address",
          "name": "to",
          "type": "address"
        },
        {
          "internalType": "uint256",
          "name": "tokenId",
          "type": "uint256"
        }
      ],
      "name": "approve",
      "outputs": [],
      "stateMutability": "nonpayable",
      "type": "function"
    },
    {
      "inputs": [
        {
          "internalType": "address",
          "name": "owner",
          "type": "address"
        }
      ],
      "name": "balanceOf",
      "outputs": [
        {
          "internalType": "uint256",
          "name": "",
          "type": "uint256"
        }
      ],
      "stateMutability": "view",
      "type": "function",
      "constant": true
    },
    {
      "inputs": [
        {
          "internalType": "uint256",
          "name": "tokenId",
          "type": "uint256"
        }
      ],
      "name": "getApproved",
      "outputs": [
        {
          "internalType": "address",
          "name": "",
          "type": "address"
        }
      ],
      "stateMutability": "view",
      "type": "function",
      "constant": true
    },
    {
      "inputs": [
        {
          "internalType": "address",
          "name": "owner",
          "type": "address"
        },
        {
          "internalType": "address",
          "name": "operator",
          "type": "address"
        }
      ],
      "name": "isApprovedForAll",
      "outputs": [
        {
          "internalType": "bool",
          "name": "",
          "type": "bool"
        }
      ],
      "stateMutability": "view",
      "type": "function",
      "constant": true
    },
    {
      "inputs": [],
      "name": "name",
      "outputs": [
        {
          "internalType": "string",
          "name": "",
          "type": "string"
        }
      ],
      "stateMutability": "view",
      "type": "function",
      "constant": true
    },
    {
      "inputs": [
        {
          "internalType": "uint256",
          "name": "tokenId",
          "type": "uint256"
        }
      ],
      "name": "ownerOf",
      "outputs": [
        {
          "internalType": "address",
          "name": "",
          "type": "address"
        }
      ],
      "stateMutability": "view",
      "type": "function",
      "constant": true
    },
    {
      "inputs": [
        {
          "internalType": "address",
          "name": "from",
          "type": "address"
        },
        {
          "internalType": "address",
          "name": "to",
          "type": "address"
        },
        {
          "internalType": "uint256",
          "name": "tokenId",
          "type": "uint256"
        }
      ],
      "name": "safeTransferFrom",
      "outputs": [],
      "stateMutability": "nonpayable",
      "type": "function"
    },
    {
      "inputs": [
        {
          "internalType": "address",
          "name": "from",
          "type": "address"
        },
        {
          "internalType": "address",
          "name": "to",
          "type": "address"
        },
        {
          "internalType": "uint256",
          "name": "tokenId",
          "type": "uint256"
        },
        {
          "internalType": "bytes",
          "name": "_data",
          "type": "bytes"
        }
      ],
      "name": "safeTransferFrom",
      "outputs": [],
      "stateMutability": "nonpayable",
      "type": "function"
    },
    {
      "inputs": [
        {
          "internalType": "address",
          "name": "operator",
          "type": "address"
        },
        {
          "internalType": "bool",
          "name": "approved",
          "type": "bool"
        }
      ],
      "name": "setApprovalForAll",
      "outputs": [],
      "stateMutability": "nonpayable",
      "type": "function"
    },
    {
      "inputs": [],
      "name": "symbol",
      "outputs": [
        {
          "internalType": "string",
          "name": "",
          "type": "string"
        }
      ],
      "stateMutability": "view",
      "type": "function",
      "constant": true
    },
    {
      "inputs": [
        {
          "internalType": "uint256",
          "name": "index",
          "type": "uint256"
        }
      ],
      "name": "tokenByIndex",
      "outputs": [
        {
          "internalType": "uint256",
          "name": "",
          "type": "uint256"
        }
      ],
      "stateMutability": "view",
      "type": "function",
      "constant": true
    },
    {
      "inputs": [
        {
          "internalType": "address",
          "name": "owner",
          "type": "address"
        },
        {
          "internalType": "uint256",
          "name": "index",
          "type": "uint256"
        }
      ],
      "name": "tokenOfOwnerByIndex",
      "outputs": [
        {
          "internalType": "uint256",
          "name": "",
          "type": "uint256"
        }
      ],
      "stateMutability": "view",
      "type": "function",
      "constant": true
    },
    {
      "inputs": [],
      "name": "totalSupply",
      "outputs": [
        {
          "internalType": "uint256",
          "name": "",
          "type": "uint256"
        }
      ],
      "stateMutability": "view",
      "type": "function",
      "constant": true
    },
    {
      "inputs": [
        {
          "internalType": "address",
          "name": "from",
          "type": "address"
        },
        {
          "internalType": "address",
          "name": "to",
          "type": "address"
        },
        {
          "internalType": "uint256",
          "name": "tokenId",
          "type": "uint256"
        }
      ],
      "name": "transferFrom",
      "outputs": [],
      "stateMutability": "nonpayable",
      "type": "function"
    },
    {
      "inputs": [
        {
          "internalType": "address",
          "name": "_to",
          "type": "address"
        }
      ],
      "name": "discover",
      "outputs": [
        {
          "internalType": "uint256",
          "name": "",
          "type": "uint256"
        }
      ],
      "stateMutability": "nonpayable",
      "type": "function"
    },
    {
      "inputs": [
        {
          "internalType": "uint256",
          "name": "tokenId",
          "type": "uint256"
        }
      ],
      "name": "tokenURI",
      "outputs": [
        {
          "internalType": "string",
          "name": "",
          "type": "string"
        }
      ],
      "stateMutability": "view",
      "type": "function",
      "constant": true
    },
    {
      "inputs": [
        {
          "internalType": "bytes4",
          "name": "interfaceId",
          "type": "bytes4"
        }
      ],
      "name": "supportsInterface",
      "outputs": [
        {
          "internalType": "bool",
          "name": "",
          "type": "bool"
        }
      ],
      "stateMutability": "view",
      "type": "function",
      "constant": true
    }
  ],
  "bytecode": "0x60806040523480156200001157600080fd5b506040518060400160405280600c81526020017f50617263656c20546f6b656e00000000000000000000000000000000000000008152506040518060400160405280600681526020017f50415243454c0000000000000000000000000000000000000000000000000000815250816000908051906020019062000096929190620000b8565b508060019080519060200190620000af929190620000b8565b505050620001cd565b828054620000c69062000168565b90600052602060002090601f016020900481019282620000ea576000855562000136565b82601f106200010557805160ff191683800117855562000136565b8280016001018555821562000136579182015b828111156200013557825182559160200191906001019062000118565b5b50905062000145919062000149565b5090565b5b80821115620001645760008160009055506001016200014a565b5090565b600060028204905060018216806200018157607f821691505b602082108114156200019857620001976200019e565b5b50919050565b7f4e487b7100000000000000000000000000000000000000000000000000000000600052602260045260246000fd5b6138a880620001dd6000396000f3fe608060405234801561001057600080fd5b506004361061010b5760003560e01c80634f6ccce7116100a257806395d89b411161007157806395d89b41146102f0578063a22cb4651461030e578063b88d4fde1461032a578063c87b56dd14610346578063e985e9c5146103765761010b565b80634f6ccce714610230578063535b9d97146102605780636352211e1461029057806370a08231146102c05761010b565b806318160ddd116100de57806318160ddd146101aa57806323b872dd146101c85780632f745c59146101e457806342842e0e146102145761010b565b806301ffc9a71461011057806306fdde0314610140578063081812fc1461015e578063095ea7b31461018e575b600080fd5b61012a6004803603810190610125919061282c565b6103a6565b6040516101379190612c78565b60405180910390f35b6101486103b8565b6040516101559190612c93565b60405180910390f35b6101786004803603810190610173919061287e565b61044a565b6040516101859190612c11565b60405180910390f35b6101a860048036038101906101a391906127f0565b6104cf565b005b6101b26105e7565b6040516101bf9190612ef5565b60405180910390f35b6101e260048036038101906101dd91906126ea565b6105f4565b005b6101fe60048036038101906101f991906127f0565b610654565b60405161020b9190612ef5565b60405180910390f35b61022e600480360381019061022991906126ea565b6106f9565b005b61024a6004803603810190610245919061287e565b610719565b6040516102579190612ef5565b60405180910390f35b61027a60048036038101906102759190612685565b6107b0565b6040516102879190612ef5565b60405180910390f35b6102aa60048036038101906102a5919061287e565b610833565b6040516102b79190612c11565b60405180910390f35b6102da60048036038101906102d59190612685565b6108e5565b6040516102e79190612ef5565b60405180910390f35b6102f861099d565b6040516103059190612c93565b60405180910390f35b610328600480360381019061032391906127b4565b610a2f565b005b610344600480360381019061033f9190612739565b610bb0565b005b610360600480360381019061035b919061287e565b610c12565b60405161036d9190612c93565b60405180910390f35b610390600480360381019061038b91906126ae565b610c24565b60405161039d9190612c78565b60405180910390f35b60006103b182610cb8565b9050919050565b6060600080546103c79061311a565b80601f01602080910402602001604051908101604052809291908181526020018280546103f39061311a565b80156104405780601f1061041557610100808354040283529160200191610440565b820191906000526020600020905b81548152906001019060200180831161042357829003601f168201915b5050505050905090565b600061045582610d32565b610494576040517f08c379a000000000000000000000000000000000000000000000000000000000815260040161048b90612e35565b60405180910390fd5b6004600083815260200190815260200160002060009054906101000a900473ffffffffffffffffffffffffffffffffffffffff169050919050565b60006104da82610833565b90508073ffffffffffffffffffffffffffffffffffffffff168373ffffffffffffffffffffffffffffffffffffffff16141561054b576040517f08c379a000000000000000000000000000000000000000000000000000000000815260040161054290612e95565b60405180910390fd5b8073ffffffffffffffffffffffffffffffffffffffff1661056a610d9e565b73ffffffffffffffffffffffffffffffffffffffff161480610599575061059881610593610d9e565b610c24565b5b6105d8576040517f08c379a00000000000000000000000000000000000000000000000000000000081526004016105cf90612d75565b60405180910390fd5b6105e28383610da6565b505050565b6000600880549050905090565b6106056105ff610d9e565b82610e5f565b610644576040517f08c379a000000000000000000000000000000000000000000000000000000000815260040161063b90612eb5565b60405180910390fd5b61064f838383610f3d565b505050565b600061065f836108e5565b82106106a0576040517f08c379a000000000000000000000000000000000000000000000000000000000815260040161069790612cb5565b60405180910390fd5b600660008473ffffffffffffffffffffffffffffffffffffffff1673ffffffffffffffffffffffffffffffffffffffff168152602001908152602001600020600083815260200190815260200160002054905092915050565b61071483838360405180602001604052806000815250610bb0565b505050565b60006107236105e7565b8210610764576040517f08c379a000000000000000000000000000000000000000000000000000000000815260040161075b90612ed5565b60405180910390fd5b6008828154811061079e577f4e487b7100000000000000000000000000000000000000000000000000000000600052603260045260246000fd5b90600052602060002001549050919050565b60006107bc600b611199565b60006107c8600b6111af565b90506107d483826111bd565b600061081d6107e28361138b565b6040518060400160405280600581526020017f2e6a736f6e000000000000000000000000000000000000000000000000000000815250611538565b9050610829828261157c565b8192505050919050565b6000806002600084815260200190815260200160002060009054906101000a900473ffffffffffffffffffffffffffffffffffffffff169050600073ffffffffffffffffffffffffffffffffffffffff168173ffffffffffffffffffffffffffffffffffffffff1614156108dc576040517f08c379a00000000000000000000000000000000000000000000000000000000081526004016108d390612db5565b60405180910390fd5b80915050919050565b60008073ffffffffffffffffffffffffffffffffffffffff168273ffffffffffffffffffffffffffffffffffffffff161415610956576040517f08c379a000000000000000000000000000000000000000000000000000000000815260040161094d90612d95565b60405180910390fd5b600360008373ffffffffffffffffffffffffffffffffffffffff1673ffffffffffffffffffffffffffffffffffffffff168152602001908152602001600020549050919050565b6060600180546109ac9061311a565b80601f01602080910402602001604051908101604052809291908181526020018280546109d89061311a565b8015610a255780601f106109fa57610100808354040283529160200191610a25565b820191906000526020600020905b815481529060010190602001808311610a0857829003601f168201915b5050505050905090565b610a37610d9e565b73ffffffffffffffffffffffffffffffffffffffff168273ffffffffffffffffffffffffffffffffffffffff161415610aa5576040517f08c379a0000000000000000000000000000000000000000000000000000000008152600401610a9c90612d35565b60405180910390fd5b8060056000610ab2610d9e565b73ffffffffffffffffffffffffffffffffffffffff1673ffffffffffffffffffffffffffffffffffffffff16815260200190815260200160002060008473ffffffffffffffffffffffffffffffffffffffff1673ffffffffffffffffffffffffffffffffffffffff16815260200190815260200160002060006101000a81548160ff0219169083151502179055508173ffffffffffffffffffffffffffffffffffffffff16610b5f610d9e565b73ffffffffffffffffffffffffffffffffffffffff167f17307eab39ab6107e8899845ad3d59bd9653f200f220920489ca2b5937696c3183604051610ba49190612c78565b60405180910390a35050565b610bc1610bbb610d9e565b83610e5f565b610c00576040517f08c379a0000000000000000000000000000000000000000000000000000000008152600401610bf790612eb5565b60405180910390fd5b610c0c848484846115f0565b50505050565b6060610c1d8261164c565b9050919050565b6000600560008473ffffffffffffffffffffffffffffffffffffffff1673ffffffffffffffffffffffffffffffffffffffff16815260200190815260200160002060008373ffffffffffffffffffffffffffffffffffffffff1673ffffffffffffffffffffffffffffffffffffffff16815260200190815260200160002060009054906101000a900460ff16905092915050565b60007f780e9d63000000000000000000000000000000000000000000000000000000007bffffffffffffffffffffffffffffffffffffffffffffffffffffffff1916827bffffffffffffffffffffffffffffffffffffffffffffffffffffffff19161480610d2b5750610d2a8261179e565b5b9050919050565b60008073ffffffffffffffffffffffffffffffffffffffff166002600084815260200190815260200160002060009054906101000a900473ffffffffffffffffffffffffffffffffffffffff1673ffffffffffffffffffffffffffffffffffffffff1614159050919050565b600033905090565b816004600083815260200190815260200160002060006101000a81548173ffffffffffffffffffffffffffffffffffffffff021916908373ffffffffffffffffffffffffffffffffffffffff160217905550808273ffffffffffffffffffffffffffffffffffffffff16610e1983610833565b73ffffffffffffffffffffffffffffffffffffffff167f8c5be1e5ebec7d5bd14f71427d1e84f3dd0314c0f7b2291e5b200ac8c7c3b92560405160405180910390a45050565b6000610e6a82610d32565b610ea9576040517f08c379a0000000000000000000000000000000000000000000000000000000008152600401610ea090612d55565b60405180910390fd5b6000610eb483610833565b90508073ffffffffffffffffffffffffffffffffffffffff168473ffffffffffffffffffffffffffffffffffffffff161480610f2357508373ffffffffffffffffffffffffffffffffffffffff16610f0b8461044a565b73ffffffffffffffffffffffffffffffffffffffff16145b80610f345750610f338185610c24565b5b91505092915050565b8273ffffffffffffffffffffffffffffffffffffffff16610f5d82610833565b73ffffffffffffffffffffffffffffffffffffffff1614610fb3576040517f08c379a0000000000000000000000000000000000000000000000000000000008152600401610faa90612e55565b60405180910390fd5b600073ffffffffffffffffffffffffffffffffffffffff168273ffffffffffffffffffffffffffffffffffffffff161415611023576040517f08c379a000000000000000000000000000000000000000000000000000000000815260040161101a90612d15565b60405180910390fd5b61102e838383611880565b611039600082610da6565b6001600360008573ffffffffffffffffffffffffffffffffffffffff1673ffffffffffffffffffffffffffffffffffffffff16815260200190815260200160002060008282546110899190613030565b925050819055506001600360008473ffffffffffffffffffffffffffffffffffffffff1673ffffffffffffffffffffffffffffffffffffffff16815260200190815260200160002060008282546110e09190612fa9565b92505081905550816002600083815260200190815260200160002060006101000a81548173ffffffffffffffffffffffffffffffffffffffff021916908373ffffffffffffffffffffffffffffffffffffffff160217905550808273ffffffffffffffffffffffffffffffffffffffff168473ffffffffffffffffffffffffffffffffffffffff167fddf252ad1be2c89b69c2b068fc378daa952ba7f163c4a11628f55a4df523b3ef60405160405180910390a4505050565b6001816000016000828254019250508190555050565b600081600001549050919050565b600073ffffffffffffffffffffffffffffffffffffffff168273ffffffffffffffffffffffffffffffffffffffff16141561122d576040517f08c379a000000000000000000000000000000000000000000000000000000000815260040161122490612df5565b60405180910390fd5b61123681610d32565b15611276576040517f08c379a000000000000000000000000000000000000000000000000000000000815260040161126d90612cf5565b60405180910390fd5b61128260008383611880565b6001600360008473ffffffffffffffffffffffffffffffffffffffff1673ffffffffffffffffffffffffffffffffffffffff16815260200190815260200160002060008282546112d29190612fa9565b92505081905550816002600083815260200190815260200160002060006101000a81548173ffffffffffffffffffffffffffffffffffffffff021916908373ffffffffffffffffffffffffffffffffffffffff160217905550808273ffffffffffffffffffffffffffffffffffffffff16600073ffffffffffffffffffffffffffffffffffffffff167fddf252ad1be2c89b69c2b068fc378daa952ba7f163c4a11628f55a4df523b3ef60405160405180910390a45050565b606060008214156113d3576040518060400160405280600181526020017f30000000000000000000000000000000000000000000000000000000000000008152509050611533565b600082905060005b600082146114055780806113ee9061317d565b915050600a826113fe9190612fff565b91506113db565b60008167ffffffffffffffff811115611447577f4e487b7100000000000000000000000000000000000000000000000000000000600052604160045260246000fd5b6040519080825280601f01601f1916602001820160405280156114795781602001600182028036833780820191505090505b5090505b6000851461152c576001826114929190613030565b9150600a856114a191906131c6565b60306114ad9190612fa9565b60f81b8183815181106114e9577f4e487b7100000000000000000000000000000000000000000000000000000000600052603260045260246000fd5b60200101907effffffffffffffffffffffffffffffffffffffffffffffffffffffffffffff1916908160001a905350600a856115259190612fff565b945061147d565b8093505050505b919050565b60606115748383604051806020016040528060008152506040518060200160405280600081525060405180602001604052806000815250611890565b905092915050565b61158582610d32565b6115c4576040517f08c379a00000000000000000000000000000000000000000000000000000000081526004016115bb90612dd5565b60405180910390fd5b80600a600084815260200190815260200160002090805190602001906115eb929190612511565b505050565b6115fb848484610f3d565b61160784848484611da5565b611646576040517f08c379a000000000000000000000000000000000000000000000000000000000815260040161163d90612cd5565b60405180910390fd5b50505050565b606061165782610d32565b611696576040517f08c379a000000000000000000000000000000000000000000000000000000000815260040161168d90612e15565b60405180910390fd5b6000600a600084815260200190815260200160002080546116b69061311a565b80601f01602080910402602001604051908101604052809291908181526020018280546116e29061311a565b801561172f5780601f106117045761010080835404028352916020019161172f565b820191906000526020600020905b81548152906001019060200180831161171257829003601f168201915b505050505090506000611740611f3c565b9050600081511415611756578192505050611799565b60008251111561178b578082604051602001611773929190612bed565b60405160208183030381529060405292505050611799565b61179484611f5c565b925050505b919050565b60007f80ac58cd000000000000000000000000000000000000000000000000000000007bffffffffffffffffffffffffffffffffffffffffffffffffffffffff1916827bffffffffffffffffffffffffffffffffffffffffffffffffffffffff1916148061186957507f5b5e139f000000000000000000000000000000000000000000000000000000007bffffffffffffffffffffffffffffffffffffffffffffffffffffffff1916827bffffffffffffffffffffffffffffffffffffffffffffffffffffffff1916145b80611879575061187882612003565b5b9050919050565b61188b83838361206d565b505050565b6060600086905060008690506000869050600086905060008690506000815183518551875189516118c19190612fa9565b6118cb9190612fa9565b6118d59190612fa9565b6118df9190612fa9565b67ffffffffffffffff81111561191e577f4e487b7100000000000000000000000000000000000000000000000000000000600052604160045260246000fd5b6040519080825280601f01601f1916602001820160405280156119505781602001600182028036833780820191505090505b50905060008190506000805b8851811015611a305788818151811061199e577f4e487b7100000000000000000000000000000000000000000000000000000000600052603260045260246000fd5b602001015160f81c60f81b8383806119b59061317d565b9450815181106119ee577f4e487b7100000000000000000000000000000000000000000000000000000000600052603260045260246000fd5b60200101907effffffffffffffffffffffffffffffffffffffffffffffffffffffffffffff1916908160001a9053508080611a289061317d565b91505061195c565b5060005b8751811015611b0857878181518110611a76577f4e487b7100000000000000000000000000000000000000000000000000000000600052603260045260246000fd5b602001015160f81c60f81b838380611a8d9061317d565b945081518110611ac6577f4e487b7100000000000000000000000000000000000000000000000000000000600052603260045260246000fd5b60200101907effffffffffffffffffffffffffffffffffffffffffffffffffffffffffffff1916908160001a9053508080611b009061317d565b915050611a34565b5060005b8651811015611be057868181518110611b4e577f4e487b7100000000000000000000000000000000000000000000000000000000600052603260045260246000fd5b602001015160f81c60f81b838380611b659061317d565b945081518110611b9e577f4e487b7100000000000000000000000000000000000000000000000000000000600052603260045260246000fd5b60200101907effffffffffffffffffffffffffffffffffffffffffffffffffffffffffffff1916908160001a9053508080611bd89061317d565b915050611b0c565b5060005b8551811015611cb857858181518110611c26577f4e487b7100000000000000000000000000000000000000000000000000000000600052603260045260246000fd5b602001015160f81c60f81b838380611c3d9061317d565b945081518110611c76577f4e487b7100000000000000000000000000000000000000000000000000000000600052603260045260246000fd5b60200101907effffffffffffffffffffffffffffffffffffffffffffffffffffffffffffff1916908160001a9053508080611cb09061317d565b915050611be4565b5060005b8451811015611d9057848181518110611cfe577f4e487b7100000000000000000000000000000000000000000000000000000000600052603260045260246000fd5b602001015160f81c60f81b838380611d159061317d565b945081518110611d4e577f4e487b7100000000000000000000000000000000000000000000000000000000600052603260045260246000fd5b60200101907effffffffffffffffffffffffffffffffffffffffffffffffffffffffffffff1916908160001a9053508080611d889061317d565b915050611cbc565b50819850505050505050505095945050505050565b6000611dc68473ffffffffffffffffffffffffffffffffffffffff16612181565b15611f2f578373ffffffffffffffffffffffffffffffffffffffff1663150b7a02611def610d9e565b8786866040518563ffffffff1660e01b8152600401611e119493929190612c2c565b602060405180830381600087803b158015611e2b57600080fd5b505af1925050508015611e5c57506040513d601f19601f82011682018060405250810190611e599190612855565b60015b611edf573d8060008114611e8c576040519150601f19603f3d011682016040523d82523d6000602084013e611e91565b606091505b50600081511415611ed7576040517f08c379a0000000000000000000000000000000000000000000000000000000008152600401611ece90612cd5565b60405180910390fd5b805181602001fd5b63150b7a0260e01b7bffffffffffffffffffffffffffffffffffffffffffffffffffffffff1916817bffffffffffffffffffffffffffffffffffffffffffffffffffffffff191614915050611f34565b600190505b949350505050565b606060405180606001604052806036815260200161383d60369139905090565b6060611f6782610d32565b611fa6576040517f08c379a0000000000000000000000000000000000000000000000000000000008152600401611f9d90612e75565b60405180910390fd5b6000611fb0611f3c565b90506000815111611fd05760405180602001604052806000815250611ffb565b80611fda8461138b565b604051602001611feb929190612bed565b6040516020818303038152906040525b915050919050565b60007f01ffc9a7000000000000000000000000000000000000000000000000000000007bffffffffffffffffffffffffffffffffffffffffffffffffffffffff1916827bffffffffffffffffffffffffffffffffffffffffffffffffffffffff1916149050919050565b612078838383612194565b600073ffffffffffffffffffffffffffffffffffffffff168373ffffffffffffffffffffffffffffffffffffffff1614156120bb576120b681612199565b6120fa565b8173ffffffffffffffffffffffffffffffffffffffff168373ffffffffffffffffffffffffffffffffffffffff16146120f9576120f883826121e2565b5b5b600073ffffffffffffffffffffffffffffffffffffffff168273ffffffffffffffffffffffffffffffffffffffff16141561213d576121388161234f565b61217c565b8273ffffffffffffffffffffffffffffffffffffffff168273ffffffffffffffffffffffffffffffffffffffff161461217b5761217a8282612492565b5b5b505050565b600080823b905060008111915050919050565b505050565b6008805490506009600083815260200190815260200160002081905550600881908060018154018082558091505060019003906000526020600020016000909190919091505550565b600060016121ef846108e5565b6121f99190613030565b90506000600760008481526020019081526020016000205490508181146122de576000600660008673ffffffffffffffffffffffffffffffffffffffff1673ffffffffffffffffffffffffffffffffffffffff168152602001908152602001600020600084815260200190815260200160002054905080600660008773ffffffffffffffffffffffffffffffffffffffff1673ffffffffffffffffffffffffffffffffffffffff168152602001908152602001600020600084815260200190815260200160002081905550816007600083815260200190815260200160002081905550505b6007600084815260200190815260200160002060009055600660008573ffffffffffffffffffffffffffffffffffffffff1673ffffffffffffffffffffffffffffffffffffffff16815260200190815260200160002060008381526020019081526020016000206000905550505050565b600060016008805490506123639190613030565b90506000600960008481526020019081526020016000205490506000600883815481106123b9577f4e487b7100000000000000000000000000000000000000000000000000000000600052603260045260246000fd5b906000526020600020015490508060088381548110612401577f4e487b7100000000000000000000000000000000000000000000000000000000600052603260045260246000fd5b906000526020600020018190555081600960008381526020019081526020016000208190555060096000858152602001908152602001600020600090556008805480612476577f4e487b7100000000000000000000000000000000000000000000000000000000600052603160045260246000fd5b6001900381819060005260206000200160009055905550505050565b600061249d836108e5565b905081600660008573ffffffffffffffffffffffffffffffffffffffff1673ffffffffffffffffffffffffffffffffffffffff168152602001908152602001600020600083815260200190815260200160002081905550806007600084815260200190815260200160002081905550505050565b82805461251d9061311a565b90600052602060002090601f01602090048101928261253f5760008555612586565b82601f1061255857805160ff1916838001178555612586565b82800160010185558215612586579182015b8281111561258557825182559160200191906001019061256a565b5b5090506125939190612597565b5090565b5b808211156125b0576000816000905550600101612598565b5090565b60006125c76125c284612f35565b612f10565b9050828152602081018484840111156125df57600080fd5b6125ea8482856130d8565b509392505050565b600081359050612601816137e0565b92915050565b600081359050612616816137f7565b92915050565b60008135905061262b8161380e565b92915050565b6000815190506126408161380e565b92915050565b600082601f83011261265757600080fd5b81356126678482602086016125b4565b91505092915050565b60008135905061267f81613825565b92915050565b60006020828403121561269757600080fd5b60006126a5848285016125f2565b91505092915050565b600080604083850312156126c157600080fd5b60006126cf858286016125f2565b92505060206126e0858286016125f2565b9150509250929050565b6000806000606084860312156126ff57600080fd5b600061270d868287016125f2565b935050602061271e868287016125f2565b925050604061272f86828701612670565b9150509250925092565b6000806000806080858703121561274f57600080fd5b600061275d878288016125f2565b945050602061276e878288016125f2565b935050604061277f87828801612670565b925050606085013567ffffffffffffffff81111561279c57600080fd5b6127a887828801612646565b91505092959194509250565b600080604083850312156127c757600080fd5b60006127d5858286016125f2565b92505060206127e685828601612607565b9150509250929050565b6000806040838503121561280357600080fd5b6000612811858286016125f2565b925050602061282285828601612670565b9150509250929050565b60006020828403121561283e57600080fd5b600061284c8482850161261c565b91505092915050565b60006020828403121561286757600080fd5b600061287584828501612631565b91505092915050565b60006020828403121561289057600080fd5b600061289e84828501612670565b91505092915050565b6128b081613064565b82525050565b6128bf81613076565b82525050565b60006128d082612f66565b6128da8185612f7c565b93506128ea8185602086016130e7565b6128f3816132b3565b840191505092915050565b600061290982612f71565b6129138185612f8d565b93506129238185602086016130e7565b61292c816132b3565b840191505092915050565b600061294282612f71565b61294c8185612f9e565b935061295c8185602086016130e7565b80840191505092915050565b6000612975602b83612f8d565b9150612980826132c4565b604082019050919050565b6000612998603283612f8d565b91506129a382613313565b604082019050919050565b60006129bb601c83612f8d565b91506129c682613362565b602082019050919050565b60006129de602483612f8d565b91506129e98261338b565b604082019050919050565b6000612a01601983612f8d565b9150612a0c826133da565b602082019050919050565b6000612a24602c83612f8d565b9150612a2f82613403565b604082019050919050565b6000612a47603883612f8d565b9150612a5282613452565b604082019050919050565b6000612a6a602a83612f8d565b9150612a75826134a1565b604082019050919050565b6000612a8d602983612f8d565b9150612a98826134f0565b604082019050919050565b6000612ab0602e83612f8d565b9150612abb8261353f565b604082019050919050565b6000612ad3602083612f8d565b9150612ade8261358e565b602082019050919050565b6000612af6603183612f8d565b9150612b01826135b7565b604082019050919050565b6000612b19602c83612f8d565b9150612b2482613606565b604082019050919050565b6000612b3c602983612f8d565b9150612b4782613655565b604082019050919050565b6000612b5f602f83612f8d565b9150612b6a826136a4565b604082019050919050565b6000612b82602183612f8d565b9150612b8d826136f3565b604082019050919050565b6000612ba5603183612f8d565b9150612bb082613742565b604082019050919050565b6000612bc8602c83612f8d565b9150612bd382613791565b604082019050919050565b612be7816130ce565b82525050565b6000612bf98285612937565b9150612c058284612937565b91508190509392505050565b6000602082019050612c2660008301846128a7565b92915050565b6000608082019050612c4160008301876128a7565b612c4e60208301866128a7565b612c5b6040830185612bde565b8181036060830152612c6d81846128c5565b905095945050505050565b6000602082019050612c8d60008301846128b6565b92915050565b60006020820190508181036000830152612cad81846128fe565b905092915050565b60006020820190508181036000830152612cce81612968565b9050919050565b60006020820190508181036000830152612cee8161298b565b9050919050565b60006020820190508181036000830152612d0e816129ae565b9050919050565b60006020820190508181036000830152612d2e816129d1565b9050919050565b60006020820190508181036000830152612d4e816129f4565b9050919050565b60006020820190508181036000830152612d6e81612a17565b9050919050565b60006020820190508181036000830152612d8e81612a3a565b9050919050565b60006020820190508181036000830152612dae81612a5d565b9050919050565b60006020820190508181036000830152612dce81612a80565b9050919050565b60006020820190508181036000830152612dee81612aa3565b9050919050565b60006020820190508181036000830152612e0e81612ac6565b9050919050565b60006020820190508181036000830152612e2e81612ae9565b9050919050565b60006020820190508181036000830152612e4e81612b0c565b9050919050565b60006020820190508181036000830152612e6e81612b2f565b9050919050565b60006020820190508181036000830152612e8e81612b52565b9050919050565b60006020820190508181036000830152612eae81612b75565b9050919050565b60006020820190508181036000830152612ece81612b98565b9050919050565b60006020820190508181036000830152612eee81612bbb565b9050919050565b6000602082019050612f0a6000830184612bde565b92915050565b6000612f1a612f2b565b9050612f26828261314c565b919050565b6000604051905090565b600067ffffffffffffffff821115612f5057612f4f613284565b5b612f59826132b3565b9050602081019050919050565b600081519050919050565b600081519050919050565b600082825260208201905092915050565b600082825260208201905092915050565b600081905092915050565b6000612fb4826130ce565b9150612fbf836130ce565b9250827fffffffffffffffffffffffffffffffffffffffffffffffffffffffffffffffff03821115612ff457612ff36131f7565b5b828201905092915050565b600061300a826130ce565b9150613015836130ce565b92508261302557613024613226565b5b828204905092915050565b600061303b826130ce565b9150613046836130ce565b925082821015613059576130586131f7565b5b828203905092915050565b600061306f826130ae565b9050919050565b60008115159050919050565b60007fffffffff0000000000000000000000000000000000000000000000000000000082169050919050565b600073ffffffffffffffffffffffffffffffffffffffff82169050919050565b6000819050919050565b82818337600083830152505050565b60005b838110156131055780820151818401526020810190506130ea565b83811115613114576000848401525b50505050565b6000600282049050600182168061313257607f821691505b6020821081141561314657613145613255565b5b50919050565b613155826132b3565b810181811067ffffffffffffffff8211171561317457613173613284565b5b80604052505050565b6000613188826130ce565b91507fffffffffffffffffffffffffffffffffffffffffffffffffffffffffffffffff8214156131bb576131ba6131f7565b5b600182019050919050565b60006131d1826130ce565b91506131dc836130ce565b9250826131ec576131eb613226565b5b828206905092915050565b7f4e487b7100000000000000000000000000000000000000000000000000000000600052601160045260246000fd5b7f4e487b7100000000000000000000000000000000000000000000000000000000600052601260045260246000fd5b7f4e487b7100000000000000000000000000000000000000000000000000000000600052602260045260246000fd5b7f4e487b7100000000000000000000000000000000000000000000000000000000600052604160045260246000fd5b6000601f19601f8301169050919050565b7f455243373231456e756d657261626c653a206f776e657220696e646578206f7560008201527f74206f6620626f756e6473000000000000000000000000000000000000000000602082015250565b7f4552433732313a207472616e7366657220746f206e6f6e20455243373231526560008201527f63656976657220696d706c656d656e7465720000000000000000000000000000602082015250565b7f4552433732313a20746f6b656e20616c7265616479206d696e74656400000000600082015250565b7f4552433732313a207472616e7366657220746f20746865207a65726f2061646460008201527f7265737300000000000000000000000000000000000000000000000000000000602082015250565b7f4552433732313a20617070726f766520746f2063616c6c657200000000000000600082015250565b7f4552433732313a206f70657261746f7220717565727920666f72206e6f6e657860008201527f697374656e7420746f6b656e0000000000000000000000000000000000000000602082015250565b7f4552433732313a20617070726f76652063616c6c6572206973206e6f74206f7760008201527f6e6572206e6f7220617070726f76656420666f7220616c6c0000000000000000602082015250565b7f4552433732313a2062616c616e636520717565727920666f7220746865207a6560008201527f726f206164647265737300000000000000000000000000000000000000000000602082015250565b7f4552433732313a206f776e657220717565727920666f72206e6f6e657869737460008201527f656e7420746f6b656e0000000000000000000000000000000000000000000000602082015250565b7f45524337323155524953746f726167653a2055524920736574206f66206e6f6e60008201527f6578697374656e7420746f6b656e000000000000000000000000000000000000602082015250565b7f4552433732313a206d696e7420746f20746865207a65726f2061646472657373600082015250565b7f45524337323155524953746f726167653a2055524920717565727920666f722060008201527f6e6f6e6578697374656e7420746f6b656e000000000000000000000000000000602082015250565b7f4552433732313a20617070726f76656420717565727920666f72206e6f6e657860008201527f697374656e7420746f6b656e0000000000000000000000000000000000000000602082015250565b7f4552433732313a207472616e73666572206f6620746f6b656e2074686174206960008201527f73206e6f74206f776e0000000000000000000000000000000000000000000000602082015250565b7f4552433732314d657461646174613a2055524920717565727920666f72206e6f60008201527f6e6578697374656e7420746f6b656e0000000000000000000000000000000000602082015250565b7f4552433732313a20617070726f76616c20746f2063757272656e74206f776e6560008201527f7200000000000000000000000000000000000000000000000000000000000000602082015250565b7f4552433732313a207472616e736665722063616c6c6572206973206e6f74206f60008201527f776e6572206e6f7220617070726f766564000000000000000000000000000000602082015250565b7f455243373231456e756d657261626c653a20676c6f62616c20696e646578206f60008201527f7574206f6620626f756e64730000000000000000000000000000000000000000602082015250565b6137e981613064565b81146137f457600080fd5b50565b61380081613076565b811461380b57600080fd5b50565b61381781613082565b811461382257600080fd5b50565b61382e816130ce565b811461383957600080fd5b5056fe68747470733a2f2f73746f726167652e676f6f676c65617069732e636f6d2f70617263656c2d6d657461646174612f70617263656c2fa26469706673582212204549195fdc6a9c94b86d34dd2ce27e8fbad4cffa1cb61ac71cda0408dfccc5cf64736f6c63430008040033",
  "immutableReferences": {},
  "source": "// SPDX-License-Identifier: MIT\npragma solidity >=0.8.0 <0.9.0;\n\nimport '@openzeppelin/contracts/token/ERC721/ERC721.sol';\nimport '@openzeppelin/contracts/token/ERC721/extensions/ERC721Enumerable.sol';\nimport '@openzeppelin/contracts/token/ERC721/extensions/ERC721URIStorage.sol';\nimport \"@openzeppelin/contracts/utils/Counters.sol\";\nimport \"@openzeppelin/contracts/utils/Strings.sol\";\nimport \"./Concat.sol\";\n\ncontract Parcel is ERC721, ERC721Enumerable, ERC721URIStorage {\n    using Counters for Counters.Counter;\n    Counters.Counter private _tokenIds;\n\n    constructor() ERC721(\"Parcel Token\", \"PARCEL\") {\n    }\n\n    function discover(address _to) public returns(uint256) {\n        _tokenIds.increment();\n        uint256 discoveredId = _tokenIds.current();\n\n       _mint(_to, discoveredId);\n       string memory uri = Concat.strConcat(\n            Strings.toString(discoveredId),\n            '.json'\n        );\n       _setTokenURI(discoveredId, uri);\n       return discoveredId;\n    }\n\n    function _beforeTokenTransfer(address from, address to, uint256 tokenId) internal override(ERC721, ERC721Enumerable) {\n        super._beforeTokenTransfer(from, to, tokenId);\n    }\n\n    function _burn(uint256 tokenId) internal override(ERC721, ERC721URIStorage) {\n        super._burn(tokenId);\n    }\n\n    function tokenURI(uint256 tokenId)\n        public\n        view\n        override(ERC721, ERC721URIStorage)\n        returns (string memory)\n    {\n        return super.tokenURI(tokenId);\n    }\n\n    function supportsInterface(bytes4 interfaceId)\n        public\n        view\n        override(ERC721, ERC721Enumerable)\n        returns (bool)\n    {\n        return super.supportsInterface(interfaceId);\n    }\n\n    function _baseURI() internal pure override returns (string memory) {\n        return \"https://storage.googleapis.com/parcel-metadata/parcel/\";\n    }\n}\n",
  "sourcePath": "/Users/brianbroeking/projects/columbus/contracts/Parcel.sol",
  "compiler": {
    "name": "solc",
    "version": "0.8.4+commit.c7e474f2.Emscripten.clang"
  },
  "schemaVersion": "3.4.0",
  "updatedAt": "2021-05-13T03:44:46.455Z",
  "networkType": "ethereum",
  "devdoc": {
    "kind": "dev",
    "methods": {
      "approve(address,uint256)": {
        "details": "See {IERC721-approve}."
      },
      "balanceOf(address)": {
        "details": "See {IERC721-balanceOf}."
      },
      "getApproved(uint256)": {
        "details": "See {IERC721-getApproved}."
      },
      "isApprovedForAll(address,address)": {
        "details": "See {IERC721-isApprovedForAll}."
      },
      "name()": {
        "details": "See {IERC721Metadata-name}."
      },
      "ownerOf(uint256)": {
        "details": "See {IERC721-ownerOf}."
      },
      "safeTransferFrom(address,address,uint256)": {
        "details": "See {IERC721-safeTransferFrom}."
      },
      "safeTransferFrom(address,address,uint256,bytes)": {
        "details": "See {IERC721-safeTransferFrom}."
      },
      "setApprovalForAll(address,bool)": {
        "details": "See {IERC721-setApprovalForAll}."
      },
      "symbol()": {
        "details": "See {IERC721Metadata-symbol}."
      },
      "tokenByIndex(uint256)": {
        "details": "See {IERC721Enumerable-tokenByIndex}."
      },
      "tokenOfOwnerByIndex(address,uint256)": {
        "details": "See {IERC721Enumerable-tokenOfOwnerByIndex}."
      },
      "totalSupply()": {
        "details": "See {IERC721Enumerable-totalSupply}."
      },
      "transferFrom(address,address,uint256)": {
        "details": "See {IERC721-transferFrom}."
      }
    },
    "version": 1
  },
  "userdoc": {
    "kind": "user",
    "methods": {},
    "version": 1
  }
}