{
  "contractName": "Parcel",
  "abi": [
    {
      "inputs": [],
      "stateMutability": "nonpayable",
      "type": "constructor"
    },
    {
      "anonymous": false,
      "inputs": [
        {
          "indexed": true,
          "internalType": "address",
          "name": "owner",
          "type": "address"
        },
        {
          "indexed": true,
          "internalType": "address",
          "name": "approved",
          "type": "address"
        },
        {
          "indexed": true,
          "internalType": "uint256",
          "name": "tokenId",
          "type": "uint256"
        }
      ],
      "name": "Approval",
      "type": "event"
    },
    {
      "anonymous": false,
      "inputs": [
        {
          "indexed": true,
          "internalType": "address",
          "name": "owner",
          "type": "address"
        },
        {
          "indexed": true,
          "internalType": "address",
          "name": "operator",
          "type": "address"
        },
        {
          "indexed": false,
          "internalType": "bool",
          "name": "approved",
          "type": "bool"
        }
      ],
      "name": "ApprovalForAll",
      "type": "event"
    },
    {
      "anonymous": false,
      "inputs": [
        {
          "indexed": true,
          "internalType": "address",
          "name": "from",
          "type": "address"
        },
        {
          "indexed": true,
          "internalType": "address",
          "name": "to",
          "type": "address"
        },
        {
          "indexed": true,
          "internalType": "uint256",
          "name": "tokenId",
          "type": "uint256"
        }
      ],
      "name": "Transfer",
      "type": "event"
    },
    {
      "inputs": [
        {
          "internalType": "address",
          "name": "to",
          "type": "address"
        },
        {
          "internalType": "uint256",
          "name": "tokenId",
          "type": "uint256"
        }
      ],
      "name": "approve",
      "outputs": [],
      "stateMutability": "nonpayable",
      "type": "function"
    },
    {
      "inputs": [
        {
          "internalType": "address",
          "name": "owner",
          "type": "address"
        }
      ],
      "name": "balanceOf",
      "outputs": [
        {
          "internalType": "uint256",
          "name": "",
          "type": "uint256"
        }
      ],
      "stateMutability": "view",
      "type": "function",
      "constant": true
    },
    {
      "inputs": [
        {
          "internalType": "uint256",
          "name": "tokenId",
          "type": "uint256"
        }
      ],
      "name": "getApproved",
      "outputs": [
        {
          "internalType": "address",
          "name": "",
          "type": "address"
        }
      ],
      "stateMutability": "view",
      "type": "function",
      "constant": true
    },
    {
      "inputs": [
        {
          "internalType": "address",
          "name": "owner",
          "type": "address"
        },
        {
          "internalType": "address",
          "name": "operator",
          "type": "address"
        }
      ],
      "name": "isApprovedForAll",
      "outputs": [
        {
          "internalType": "bool",
          "name": "",
          "type": "bool"
        }
      ],
      "stateMutability": "view",
      "type": "function",
      "constant": true
    },
    {
      "inputs": [],
      "name": "name",
      "outputs": [
        {
          "internalType": "string",
          "name": "",
          "type": "string"
        }
      ],
      "stateMutability": "view",
      "type": "function",
      "constant": true
    },
    {
      "inputs": [
        {
          "internalType": "uint256",
          "name": "tokenId",
          "type": "uint256"
        }
      ],
      "name": "ownerOf",
      "outputs": [
        {
          "internalType": "address",
          "name": "",
          "type": "address"
        }
      ],
      "stateMutability": "view",
      "type": "function",
      "constant": true
    },
    {
      "inputs": [
        {
          "internalType": "address",
          "name": "from",
          "type": "address"
        },
        {
          "internalType": "address",
          "name": "to",
          "type": "address"
        },
        {
          "internalType": "uint256",
          "name": "tokenId",
          "type": "uint256"
        }
      ],
      "name": "safeTransferFrom",
      "outputs": [],
      "stateMutability": "nonpayable",
      "type": "function"
    },
    {
      "inputs": [
        {
          "internalType": "address",
          "name": "from",
          "type": "address"
        },
        {
          "internalType": "address",
          "name": "to",
          "type": "address"
        },
        {
          "internalType": "uint256",
          "name": "tokenId",
          "type": "uint256"
        },
        {
          "internalType": "bytes",
          "name": "_data",
          "type": "bytes"
        }
      ],
      "name": "safeTransferFrom",
      "outputs": [],
      "stateMutability": "nonpayable",
      "type": "function"
    },
    {
      "inputs": [
        {
          "internalType": "address",
          "name": "operator",
          "type": "address"
        },
        {
          "internalType": "bool",
          "name": "approved",
          "type": "bool"
        }
      ],
      "name": "setApprovalForAll",
      "outputs": [],
      "stateMutability": "nonpayable",
      "type": "function"
    },
    {
      "inputs": [],
      "name": "symbol",
      "outputs": [
        {
          "internalType": "string",
          "name": "",
          "type": "string"
        }
      ],
      "stateMutability": "view",
      "type": "function",
      "constant": true
    },
    {
      "inputs": [
        {
          "internalType": "uint256",
          "name": "index",
          "type": "uint256"
        }
      ],
      "name": "tokenByIndex",
      "outputs": [
        {
          "internalType": "uint256",
          "name": "",
          "type": "uint256"
        }
      ],
      "stateMutability": "view",
      "type": "function",
      "constant": true
    },
    {
      "inputs": [
        {
          "internalType": "address",
          "name": "owner",
          "type": "address"
        },
        {
          "internalType": "uint256",
          "name": "index",
          "type": "uint256"
        }
      ],
      "name": "tokenOfOwnerByIndex",
      "outputs": [
        {
          "internalType": "uint256",
          "name": "",
          "type": "uint256"
        }
      ],
      "stateMutability": "view",
      "type": "function",
      "constant": true
    },
    {
      "inputs": [],
      "name": "totalSupply",
      "outputs": [
        {
          "internalType": "uint256",
          "name": "",
          "type": "uint256"
        }
      ],
      "stateMutability": "view",
      "type": "function",
      "constant": true
    },
    {
      "inputs": [
        {
          "internalType": "address",
          "name": "from",
          "type": "address"
        },
        {
          "internalType": "address",
          "name": "to",
          "type": "address"
        },
        {
          "internalType": "uint256",
          "name": "tokenId",
          "type": "uint256"
        }
      ],
      "name": "transferFrom",
      "outputs": [],
      "stateMutability": "nonpayable",
      "type": "function"
    },
    {
      "inputs": [
        {
          "internalType": "address",
          "name": "_to",
          "type": "address"
        },
        {
          "internalType": "string",
          "name": "uuid",
          "type": "string"
        }
      ],
      "name": "discover",
      "outputs": [
        {
          "internalType": "uint256",
          "name": "",
          "type": "uint256"
        }
      ],
      "stateMutability": "nonpayable",
      "type": "function"
    },
    {
      "inputs": [
        {
          "internalType": "uint256",
          "name": "tokenId",
          "type": "uint256"
        }
      ],
      "name": "tokenURI",
      "outputs": [
        {
          "internalType": "string",
          "name": "",
          "type": "string"
        }
      ],
      "stateMutability": "view",
      "type": "function",
      "constant": true
    },
    {
      "inputs": [
        {
          "internalType": "bytes4",
          "name": "interfaceId",
          "type": "bytes4"
        }
      ],
      "name": "supportsInterface",
      "outputs": [
        {
          "internalType": "bool",
          "name": "",
          "type": "bool"
        }
      ],
      "stateMutability": "view",
      "type": "function",
      "constant": true
    }
  ],
  "bytecode": "0x60806040523480156200001157600080fd5b506040518060400160405280600c81526020017f50617263656c20546f6b656e00000000000000000000000000000000000000008152506040518060400160405280600681526020017f50415243454c0000000000000000000000000000000000000000000000000000815250816000908051906020019062000096929190620000b8565b508060019080519060200190620000af929190620000b8565b505050620001cd565b828054620000c69062000168565b90600052602060002090601f016020900481019282620000ea576000855562000136565b82601f106200010557805160ff191683800117855562000136565b8280016001018555821562000136579182015b828111156200013557825182559160200191906001019062000118565b5b50905062000145919062000149565b5090565b5b80821115620001645760008160009055506001016200014a565b5090565b600060028204905060018216806200018157607f821691505b602082108114156200019857620001976200019e565b5b50919050565b7f4e487b7100000000000000000000000000000000000000000000000000000000600052602260045260246000fd5b61343180620001dd6000396000f3fe608060405234801561001057600080fd5b506004361061010b5760003560e01c80634f6ccce7116100a2578063a22cb46511610071578063a22cb465146102de578063b88d4fde146102fa578063c87b56dd14610316578063e985e9c514610346578063f39a5986146103765761010b565b80634f6ccce7146102305780636352211e1461026057806370a082311461029057806395d89b41146102c05761010b565b806318160ddd116100de57806318160ddd146101aa57806323b872dd146101c85780632f745c59146101e457806342842e0e146102145761010b565b806301ffc9a71461011057806306fdde0314610140578063081812fc1461015e578063095ea7b31461018e575b600080fd5b61012a6004803603810190610125919061230d565b6103a6565b6040516101379190612765565b60405180910390f35b6101486103b8565b6040516101559190612780565b60405180910390f35b61017860048036038101906101739190612367565b61044a565b60405161018591906126fe565b60405180910390f35b6101a860048036038101906101a391906122cd565b6104cf565b005b6101b26105e7565b6040516101bf91906129e2565b60405180910390f35b6101e260048036038101906101dd919061215b565b6105f4565b005b6101fe60048036038101906101f991906122cd565b610654565b60405161020b91906129e2565b60405180910390f35b61022e6004803603810190610229919061215b565b6106f9565b005b61024a60048036038101906102459190612367565b610719565b60405161025791906129e2565b60405180910390f35b61027a60048036038101906102759190612367565b61078a565b60405161028791906126fe565b60405180910390f35b6102aa60048036038101906102a591906120ee565b61083c565b6040516102b791906129e2565b60405180910390f35b6102c86108f4565b6040516102d59190612780565b60405180910390f35b6102f860048036038101906102f39190612231565b610986565b005b610314600480360381019061030f91906121ae565b610b07565b005b610330600480360381019061032b9190612367565b610b69565b60405161033d9190612780565b60405180910390f35b610360600480360381019061035b919061211b565b610b7b565b60405161036d9190612765565b60405180910390f35b610390600480360381019061038b9190612271565b610c0f565b60405161039d91906129e2565b60405180910390f35b60006103b182610c47565b9050919050565b6060600080546103c790612c38565b80601f01602080910402602001604051908101604052809291908181526020018280546103f390612c38565b80156104405780601f1061041557610100808354040283529160200191610440565b820191906000526020600020905b81548152906001019060200180831161042357829003601f168201915b5050505050905090565b600061045582610cc1565b610494576040517f08c379a000000000000000000000000000000000000000000000000000000000815260040161048b90612922565b60405180910390fd5b6004600083815260200190815260200160002060009054906101000a900473ffffffffffffffffffffffffffffffffffffffff169050919050565b60006104da8261078a565b90508073ffffffffffffffffffffffffffffffffffffffff168373ffffffffffffffffffffffffffffffffffffffff16141561054b576040517f08c379a000000000000000000000000000000000000000000000000000000000815260040161054290612982565b60405180910390fd5b8073ffffffffffffffffffffffffffffffffffffffff1661056a610d2d565b73ffffffffffffffffffffffffffffffffffffffff161480610599575061059881610593610d2d565b610b7b565b5b6105d8576040517f08c379a00000000000000000000000000000000000000000000000000000000081526004016105cf90612862565b60405180910390fd5b6105e28383610d35565b505050565b6000600880549050905090565b6106056105ff610d2d565b82610dee565b610644576040517f08c379a000000000000000000000000000000000000000000000000000000000815260040161063b906129a2565b60405180910390fd5b61064f838383610ecc565b505050565b600061065f8361083c565b82106106a0576040517f08c379a0000000000000000000000000000000000000000000000000000000008152600401610697906127a2565b60405180910390fd5b600660008473ffffffffffffffffffffffffffffffffffffffff1673ffffffffffffffffffffffffffffffffffffffff168152602001908152602001600020600083815260200190815260200160002054905092915050565b61071483838360405180602001604052806000815250610b07565b505050565b60006107236105e7565b8210610764576040517f08c379a000000000000000000000000000000000000000000000000000000000815260040161075b906129c2565b60405180910390fd5b6008828154811061077857610777612dd1565b5b90600052602060002001549050919050565b6000806002600084815260200190815260200160002060009054906101000a900473ffffffffffffffffffffffffffffffffffffffff169050600073ffffffffffffffffffffffffffffffffffffffff168173ffffffffffffffffffffffffffffffffffffffff161415610833576040517f08c379a000000000000000000000000000000000000000000000000000000000815260040161082a906128a2565b60405180910390fd5b80915050919050565b60008073ffffffffffffffffffffffffffffffffffffffff168273ffffffffffffffffffffffffffffffffffffffff1614156108ad576040517f08c379a00000000000000000000000000000000000000000000000000000000081526004016108a490612882565b60405180910390fd5b600360008373ffffffffffffffffffffffffffffffffffffffff1673ffffffffffffffffffffffffffffffffffffffff168152602001908152602001600020549050919050565b60606001805461090390612c38565b80601f016020809104026020016040519081016040528092919081815260200182805461092f90612c38565b801561097c5780601f106109515761010080835404028352916020019161097c565b820191906000526020600020905b81548152906001019060200180831161095f57829003601f168201915b5050505050905090565b61098e610d2d565b73ffffffffffffffffffffffffffffffffffffffff168273ffffffffffffffffffffffffffffffffffffffff1614156109fc576040517f08c379a00000000000000000000000000000000000000000000000000000000081526004016109f390612822565b60405180910390fd5b8060056000610a09610d2d565b73ffffffffffffffffffffffffffffffffffffffff1673ffffffffffffffffffffffffffffffffffffffff16815260200190815260200160002060008473ffffffffffffffffffffffffffffffffffffffff1673ffffffffffffffffffffffffffffffffffffffff16815260200190815260200160002060006101000a81548160ff0219169083151502179055508173ffffffffffffffffffffffffffffffffffffffff16610ab6610d2d565b73ffffffffffffffffffffffffffffffffffffffff167f17307eab39ab6107e8899845ad3d59bd9653f200f220920489ca2b5937696c3183604051610afb9190612765565b60405180910390a35050565b610b18610b12610d2d565b83610dee565b610b57576040517f08c379a0000000000000000000000000000000000000000000000000000000008152600401610b4e906129a2565b60405180910390fd5b610b6384848484611128565b50505050565b6060610b7482611184565b9050919050565b6000600560008473ffffffffffffffffffffffffffffffffffffffff1673ffffffffffffffffffffffffffffffffffffffff16815260200190815260200160002060008373ffffffffffffffffffffffffffffffffffffffff1673ffffffffffffffffffffffffffffffffffffffff16815260200190815260200160002060009054906101000a900460ff16905092915050565b6000610c1b600b6112d6565b6000610c27600b6112ec565b9050610c3384826112fa565b610c3d8184611318565b8091505092915050565b60007f780e9d63000000000000000000000000000000000000000000000000000000007bffffffffffffffffffffffffffffffffffffffffffffffffffffffff1916827bffffffffffffffffffffffffffffffffffffffffffffffffffffffff19161480610cba5750610cb98261138c565b5b9050919050565b60008073ffffffffffffffffffffffffffffffffffffffff166002600084815260200190815260200160002060009054906101000a900473ffffffffffffffffffffffffffffffffffffffff1673ffffffffffffffffffffffffffffffffffffffff1614159050919050565b600033905090565b816004600083815260200190815260200160002060006101000a81548173ffffffffffffffffffffffffffffffffffffffff021916908373ffffffffffffffffffffffffffffffffffffffff160217905550808273ffffffffffffffffffffffffffffffffffffffff16610da88361078a565b73ffffffffffffffffffffffffffffffffffffffff167f8c5be1e5ebec7d5bd14f71427d1e84f3dd0314c0f7b2291e5b200ac8c7c3b92560405160405180910390a45050565b6000610df982610cc1565b610e38576040517f08c379a0000000000000000000000000000000000000000000000000000000008152600401610e2f90612842565b60405180910390fd5b6000610e438361078a565b90508073ffffffffffffffffffffffffffffffffffffffff168473ffffffffffffffffffffffffffffffffffffffff161480610eb257508373ffffffffffffffffffffffffffffffffffffffff16610e9a8461044a565b73ffffffffffffffffffffffffffffffffffffffff16145b80610ec35750610ec28185610b7b565b5b91505092915050565b8273ffffffffffffffffffffffffffffffffffffffff16610eec8261078a565b73ffffffffffffffffffffffffffffffffffffffff1614610f42576040517f08c379a0000000000000000000000000000000000000000000000000000000008152600401610f3990612942565b60405180910390fd5b600073ffffffffffffffffffffffffffffffffffffffff168273ffffffffffffffffffffffffffffffffffffffff161415610fb2576040517f08c379a0000000000000000000000000000000000000000000000000000000008152600401610fa990612802565b60405180910390fd5b610fbd83838361146e565b610fc8600082610d35565b6001600360008573ffffffffffffffffffffffffffffffffffffffff1673ffffffffffffffffffffffffffffffffffffffff16815260200190815260200160002060008282546110189190612b4e565b925050819055506001600360008473ffffffffffffffffffffffffffffffffffffffff1673ffffffffffffffffffffffffffffffffffffffff168152602001908152602001600020600082825461106f9190612ac7565b92505081905550816002600083815260200190815260200160002060006101000a81548173ffffffffffffffffffffffffffffffffffffffff021916908373ffffffffffffffffffffffffffffffffffffffff160217905550808273ffffffffffffffffffffffffffffffffffffffff168473ffffffffffffffffffffffffffffffffffffffff167fddf252ad1be2c89b69c2b068fc378daa952ba7f163c4a11628f55a4df523b3ef60405160405180910390a4505050565b611133848484610ecc565b61113f8484848461147e565b61117e576040517f08c379a0000000000000000000000000000000000000000000000000000000008152600401611175906127c2565b60405180910390fd5b50505050565b606061118f82610cc1565b6111ce576040517f08c379a00000000000000000000000000000000000000000000000000000000081526004016111c590612902565b60405180910390fd5b6000600a600084815260200190815260200160002080546111ee90612c38565b80601f016020809104026020016040519081016040528092919081815260200182805461121a90612c38565b80156112675780601f1061123c57610100808354040283529160200191611267565b820191906000526020600020905b81548152906001019060200180831161124a57829003601f168201915b505050505090506000611278611615565b905060008151141561128e5781925050506112d1565b6000825111156112c35780826040516020016112ab9291906126da565b604051602081830303815290604052925050506112d1565b6112cc84611635565b925050505b919050565b6001816000016000828254019250508190555050565b600081600001549050919050565b6113148282604051806020016040528060008152506116dc565b5050565b61132182610cc1565b611360576040517f08c379a0000000000000000000000000000000000000000000000000000000008152600401611357906128c2565b60405180910390fd5b80600a60008481526020019081526020016000209080519060200190611387929190611f02565b505050565b60007f80ac58cd000000000000000000000000000000000000000000000000000000007bffffffffffffffffffffffffffffffffffffffffffffffffffffffff1916827bffffffffffffffffffffffffffffffffffffffffffffffffffffffff1916148061145757507f5b5e139f000000000000000000000000000000000000000000000000000000007bffffffffffffffffffffffffffffffffffffffffffffffffffffffff1916827bffffffffffffffffffffffffffffffffffffffffffffffffffffffff1916145b80611467575061146682611737565b5b9050919050565b6114798383836117a1565b505050565b600061149f8473ffffffffffffffffffffffffffffffffffffffff166118b5565b15611608578373ffffffffffffffffffffffffffffffffffffffff1663150b7a026114c8610d2d565b8786866040518563ffffffff1660e01b81526004016114ea9493929190612719565b602060405180830381600087803b15801561150457600080fd5b505af192505050801561153557506040513d601f19601f82011682018060405250810190611532919061233a565b60015b6115b8573d8060008114611565576040519150601f19603f3d011682016040523d82523d6000602084013e61156a565b606091505b506000815114156115b0576040517f08c379a00000000000000000000000000000000000000000000000000000000081526004016115a7906127c2565b60405180910390fd5b805181602001fd5b63150b7a0260e01b7bffffffffffffffffffffffffffffffffffffffffffffffffffffffff1916817bffffffffffffffffffffffffffffffffffffffffffffffffffffffff19161491505061160d565b600190505b949350505050565b60606040518060600160405280602f81526020016133cd602f9139905090565b606061164082610cc1565b61167f576040517f08c379a000000000000000000000000000000000000000000000000000000000815260040161167690612962565b60405180910390fd5b6000611689611615565b905060008151116116a957604051806020016040528060008152506116d4565b806116b3846118c8565b6040516020016116c49291906126da565b6040516020818303038152906040525b915050919050565b6116e68383611a29565b6116f3600084848461147e565b611732576040517f08c379a0000000000000000000000000000000000000000000000000000000008152600401611729906127c2565b60405180910390fd5b505050565b60007f01ffc9a7000000000000000000000000000000000000000000000000000000007bffffffffffffffffffffffffffffffffffffffffffffffffffffffff1916827bffffffffffffffffffffffffffffffffffffffffffffffffffffffff1916149050919050565b6117ac838383611bf7565b600073ffffffffffffffffffffffffffffffffffffffff168373ffffffffffffffffffffffffffffffffffffffff1614156117ef576117ea81611bfc565b61182e565b8173ffffffffffffffffffffffffffffffffffffffff168373ffffffffffffffffffffffffffffffffffffffff161461182d5761182c8382611c45565b5b5b600073ffffffffffffffffffffffffffffffffffffffff168273ffffffffffffffffffffffffffffffffffffffff1614156118715761186c81611db2565b6118b0565b8273ffffffffffffffffffffffffffffffffffffffff168273ffffffffffffffffffffffffffffffffffffffff16146118af576118ae8282611e83565b5b5b505050565b600080823b905060008111915050919050565b60606000821415611910576040518060400160405280600181526020017f30000000000000000000000000000000000000000000000000000000000000008152509050611a24565b600082905060005b6000821461194257808061192b90612c9b565b915050600a8261193b9190612b1d565b9150611918565b60008167ffffffffffffffff81111561195e5761195d612e00565b5b6040519080825280601f01601f1916602001820160405280156119905781602001600182028036833780820191505090505b5090505b60008514611a1d576001826119a99190612b4e565b9150600a856119b89190612ce4565b60306119c49190612ac7565b60f81b8183815181106119da576119d9612dd1565b5b60200101907effffffffffffffffffffffffffffffffffffffffffffffffffffffffffffff1916908160001a905350600a85611a169190612b1d565b9450611994565b8093505050505b919050565b600073ffffffffffffffffffffffffffffffffffffffff168273ffffffffffffffffffffffffffffffffffffffff161415611a99576040517f08c379a0000000000000000000000000000000000000000000000000000000008152600401611a90906128e2565b60405180910390fd5b611aa281610cc1565b15611ae2576040517f08c379a0000000000000000000000000000000000000000000000000000000008152600401611ad9906127e2565b60405180910390fd5b611aee6000838361146e565b6001600360008473ffffffffffffffffffffffffffffffffffffffff1673ffffffffffffffffffffffffffffffffffffffff1681526020019081526020016000206000828254611b3e9190612ac7565b92505081905550816002600083815260200190815260200160002060006101000a81548173ffffffffffffffffffffffffffffffffffffffff021916908373ffffffffffffffffffffffffffffffffffffffff160217905550808273ffffffffffffffffffffffffffffffffffffffff16600073ffffffffffffffffffffffffffffffffffffffff167fddf252ad1be2c89b69c2b068fc378daa952ba7f163c4a11628f55a4df523b3ef60405160405180910390a45050565b505050565b6008805490506009600083815260200190815260200160002081905550600881908060018154018082558091505060019003906000526020600020016000909190919091505550565b60006001611c528461083c565b611c5c9190612b4e565b9050600060076000848152602001908152602001600020549050818114611d41576000600660008673ffffffffffffffffffffffffffffffffffffffff1673ffffffffffffffffffffffffffffffffffffffff168152602001908152602001600020600084815260200190815260200160002054905080600660008773ffffffffffffffffffffffffffffffffffffffff1673ffffffffffffffffffffffffffffffffffffffff168152602001908152602001600020600084815260200190815260200160002081905550816007600083815260200190815260200160002081905550505b6007600084815260200190815260200160002060009055600660008573ffffffffffffffffffffffffffffffffffffffff1673ffffffffffffffffffffffffffffffffffffffff16815260200190815260200160002060008381526020019081526020016000206000905550505050565b60006001600880549050611dc69190612b4e565b9050600060096000848152602001908152602001600020549050600060088381548110611df657611df5612dd1565b5b906000526020600020015490508060088381548110611e1857611e17612dd1565b5b906000526020600020018190555081600960008381526020019081526020016000208190555060096000858152602001908152602001600020600090556008805480611e6757611e66612da2565b5b6001900381819060005260206000200160009055905550505050565b6000611e8e8361083c565b905081600660008573ffffffffffffffffffffffffffffffffffffffff1673ffffffffffffffffffffffffffffffffffffffff168152602001908152602001600020600083815260200190815260200160002081905550806007600084815260200190815260200160002081905550505050565b828054611f0e90612c38565b90600052602060002090601f016020900481019282611f305760008555611f77565b82601f10611f4957805160ff1916838001178555611f77565b82800160010185558215611f77579182015b82811115611f76578251825591602001919060010190611f5b565b5b509050611f849190611f88565b5090565b5b80821115611fa1576000816000905550600101611f89565b5090565b6000611fb8611fb384612a22565b6129fd565b905082815260208101848484011115611fd457611fd3612e34565b5b611fdf848285612bf6565b509392505050565b6000611ffa611ff584612a53565b6129fd565b90508281526020810184848401111561201657612015612e34565b5b612021848285612bf6565b509392505050565b60008135905061203881613370565b92915050565b60008135905061204d81613387565b92915050565b6000813590506120628161339e565b92915050565b6000815190506120778161339e565b92915050565b600082601f83011261209257612091612e2f565b5b81356120a2848260208601611fa5565b91505092915050565b600082601f8301126120c0576120bf612e2f565b5b81356120d0848260208601611fe7565b91505092915050565b6000813590506120e8816133b5565b92915050565b60006020828403121561210457612103612e3e565b5b600061211284828501612029565b91505092915050565b6000806040838503121561213257612131612e3e565b5b600061214085828601612029565b925050602061215185828601612029565b9150509250929050565b60008060006060848603121561217457612173612e3e565b5b600061218286828701612029565b935050602061219386828701612029565b92505060406121a4868287016120d9565b9150509250925092565b600080600080608085870312156121c8576121c7612e3e565b5b60006121d687828801612029565b94505060206121e787828801612029565b93505060406121f8878288016120d9565b925050606085013567ffffffffffffffff81111561221957612218612e39565b5b6122258782880161207d565b91505092959194509250565b6000806040838503121561224857612247612e3e565b5b600061225685828601612029565b92505060206122678582860161203e565b9150509250929050565b6000806040838503121561228857612287612e3e565b5b600061229685828601612029565b925050602083013567ffffffffffffffff8111156122b7576122b6612e39565b5b6122c3858286016120ab565b9150509250929050565b600080604083850312156122e4576122e3612e3e565b5b60006122f285828601612029565b9250506020612303858286016120d9565b9150509250929050565b60006020828403121561232357612322612e3e565b5b600061233184828501612053565b91505092915050565b6000602082840312156123505761234f612e3e565b5b600061235e84828501612068565b91505092915050565b60006020828403121561237d5761237c612e3e565b5b600061238b848285016120d9565b91505092915050565b61239d81612b82565b82525050565b6123ac81612b94565b82525050565b60006123bd82612a84565b6123c78185612a9a565b93506123d7818560208601612c05565b6123e081612e43565b840191505092915050565b60006123f682612a8f565b6124008185612aab565b9350612410818560208601612c05565b61241981612e43565b840191505092915050565b600061242f82612a8f565b6124398185612abc565b9350612449818560208601612c05565b80840191505092915050565b6000612462602b83612aab565b915061246d82612e54565b604082019050919050565b6000612485603283612aab565b915061249082612ea3565b604082019050919050565b60006124a8601c83612aab565b91506124b382612ef2565b602082019050919050565b60006124cb602483612aab565b91506124d682612f1b565b604082019050919050565b60006124ee601983612aab565b91506124f982612f6a565b602082019050919050565b6000612511602c83612aab565b915061251c82612f93565b604082019050919050565b6000612534603883612aab565b915061253f82612fe2565b604082019050919050565b6000612557602a83612aab565b915061256282613031565b604082019050919050565b600061257a602983612aab565b915061258582613080565b604082019050919050565b600061259d602e83612aab565b91506125a8826130cf565b604082019050919050565b60006125c0602083612aab565b91506125cb8261311e565b602082019050919050565b60006125e3603183612aab565b91506125ee82613147565b604082019050919050565b6000612606602c83612aab565b915061261182613196565b604082019050919050565b6000612629602983612aab565b9150612634826131e5565b604082019050919050565b600061264c602f83612aab565b915061265782613234565b604082019050919050565b600061266f602183612aab565b915061267a82613283565b604082019050919050565b6000612692603183612aab565b915061269d826132d2565b604082019050919050565b60006126b5602c83612aab565b91506126c082613321565b604082019050919050565b6126d481612bec565b82525050565b60006126e68285612424565b91506126f28284612424565b91508190509392505050565b60006020820190506127136000830184612394565b92915050565b600060808201905061272e6000830187612394565b61273b6020830186612394565b61274860408301856126cb565b818103606083015261275a81846123b2565b905095945050505050565b600060208201905061277a60008301846123a3565b92915050565b6000602082019050818103600083015261279a81846123eb565b905092915050565b600060208201905081810360008301526127bb81612455565b9050919050565b600060208201905081810360008301526127db81612478565b9050919050565b600060208201905081810360008301526127fb8161249b565b9050919050565b6000602082019050818103600083015261281b816124be565b9050919050565b6000602082019050818103600083015261283b816124e1565b9050919050565b6000602082019050818103600083015261285b81612504565b9050919050565b6000602082019050818103600083015261287b81612527565b9050919050565b6000602082019050818103600083015261289b8161254a565b9050919050565b600060208201905081810360008301526128bb8161256d565b9050919050565b600060208201905081810360008301526128db81612590565b9050919050565b600060208201905081810360008301526128fb816125b3565b9050919050565b6000602082019050818103600083015261291b816125d6565b9050919050565b6000602082019050818103600083015261293b816125f9565b9050919050565b6000602082019050818103600083015261295b8161261c565b9050919050565b6000602082019050818103600083015261297b8161263f565b9050919050565b6000602082019050818103600083015261299b81612662565b9050919050565b600060208201905081810360008301526129bb81612685565b9050919050565b600060208201905081810360008301526129db816126a8565b9050919050565b60006020820190506129f760008301846126cb565b92915050565b6000612a07612a18565b9050612a138282612c6a565b919050565b6000604051905090565b600067ffffffffffffffff821115612a3d57612a3c612e00565b5b612a4682612e43565b9050602081019050919050565b600067ffffffffffffffff821115612a6e57612a6d612e00565b5b612a7782612e43565b9050602081019050919050565b600081519050919050565b600081519050919050565b600082825260208201905092915050565b600082825260208201905092915050565b600081905092915050565b6000612ad282612bec565b9150612add83612bec565b9250827fffffffffffffffffffffffffffffffffffffffffffffffffffffffffffffffff03821115612b1257612b11612d15565b5b828201905092915050565b6000612b2882612bec565b9150612b3383612bec565b925082612b4357612b42612d44565b5b828204905092915050565b6000612b5982612bec565b9150612b6483612bec565b925082821015612b7757612b76612d15565b5b828203905092915050565b6000612b8d82612bcc565b9050919050565b60008115159050919050565b60007fffffffff0000000000000000000000000000000000000000000000000000000082169050919050565b600073ffffffffffffffffffffffffffffffffffffffff82169050919050565b6000819050919050565b82818337600083830152505050565b60005b83811015612c23578082015181840152602081019050612c08565b83811115612c32576000848401525b50505050565b60006002820490506001821680612c5057607f821691505b60208210811415612c6457612c63612d73565b5b50919050565b612c7382612e43565b810181811067ffffffffffffffff82111715612c9257612c91612e00565b5b80604052505050565b6000612ca682612bec565b91507fffffffffffffffffffffffffffffffffffffffffffffffffffffffffffffffff821415612cd957612cd8612d15565b5b600182019050919050565b6000612cef82612bec565b9150612cfa83612bec565b925082612d0a57612d09612d44565b5b828206905092915050565b7f4e487b7100000000000000000000000000000000000000000000000000000000600052601160045260246000fd5b7f4e487b7100000000000000000000000000000000000000000000000000000000600052601260045260246000fd5b7f4e487b7100000000000000000000000000000000000000000000000000000000600052602260045260246000fd5b7f4e487b7100000000000000000000000000000000000000000000000000000000600052603160045260246000fd5b7f4e487b7100000000000000000000000000000000000000000000000000000000600052603260045260246000fd5b7f4e487b7100000000000000000000000000000000000000000000000000000000600052604160045260246000fd5b600080fd5b600080fd5b600080fd5b600080fd5b6000601f19601f8301169050919050565b7f455243373231456e756d657261626c653a206f776e657220696e646578206f7560008201527f74206f6620626f756e6473000000000000000000000000000000000000000000602082015250565b7f4552433732313a207472616e7366657220746f206e6f6e20455243373231526560008201527f63656976657220696d706c656d656e7465720000000000000000000000000000602082015250565b7f4552433732313a20746f6b656e20616c7265616479206d696e74656400000000600082015250565b7f4552433732313a207472616e7366657220746f20746865207a65726f2061646460008201527f7265737300000000000000000000000000000000000000000000000000000000602082015250565b7f4552433732313a20617070726f766520746f2063616c6c657200000000000000600082015250565b7f4552433732313a206f70657261746f7220717565727920666f72206e6f6e657860008201527f697374656e7420746f6b656e0000000000000000000000000000000000000000602082015250565b7f4552433732313a20617070726f76652063616c6c6572206973206e6f74206f7760008201527f6e6572206e6f7220617070726f76656420666f7220616c6c0000000000000000602082015250565b7f4552433732313a2062616c616e636520717565727920666f7220746865207a6560008201527f726f206164647265737300000000000000000000000000000000000000000000602082015250565b7f4552433732313a206f776e657220717565727920666f72206e6f6e657869737460008201527f656e7420746f6b656e0000000000000000000000000000000000000000000000602082015250565b7f45524337323155524953746f726167653a2055524920736574206f66206e6f6e60008201527f6578697374656e7420746f6b656e000000000000000000000000000000000000602082015250565b7f4552433732313a206d696e7420746f20746865207a65726f2061646472657373600082015250565b7f45524337323155524953746f726167653a2055524920717565727920666f722060008201527f6e6f6e6578697374656e7420746f6b656e000000000000000000000000000000602082015250565b7f4552433732313a20617070726f76656420717565727920666f72206e6f6e657860008201527f697374656e7420746f6b656e0000000000000000000000000000000000000000602082015250565b7f4552433732313a207472616e73666572206f6620746f6b656e2074686174206960008201527f73206e6f74206f776e0000000000000000000000000000000000000000000000602082015250565b7f4552433732314d657461646174613a2055524920717565727920666f72206e6f60008201527f6e6578697374656e7420746f6b656e0000000000000000000000000000000000602082015250565b7f4552433732313a20617070726f76616c20746f2063757272656e74206f776e6560008201527f7200000000000000000000000000000000000000000000000000000000000000602082015250565b7f4552433732313a207472616e736665722063616c6c6572206973206e6f74206f60008201527f776e6572206e6f7220617070726f766564000000000000000000000000000000602082015250565b7f455243373231456e756d657261626c653a20676c6f62616c20696e646578206f60008201527f7574206f6620626f756e64730000000000000000000000000000000000000000602082015250565b61337981612b82565b811461338457600080fd5b50565b61339081612b94565b811461339b57600080fd5b50565b6133a781612ba0565b81146133b257600080fd5b50565b6133be81612bec565b81146133c957600080fd5b5056fe68747470733a2f2f73746f726167652e676f6f676c65617069732e636f6d2f70617263656c2d6d657461646174612fa2646970667358221220d8c2a120aca4f032a6c8371242a35320e7321e7d065cc0f16c04b13217ef253664736f6c63430008050033",
  "immutableReferences": {},
  "source": "// SPDX-License-Identifier: MIT\npragma solidity >=0.8.0 <0.9.0;\n\nimport '@openzeppelin/contracts/token/ERC721/ERC721.sol';\nimport '@openzeppelin/contracts/token/ERC721/extensions/ERC721Enumerable.sol';\nimport '@openzeppelin/contracts/token/ERC721/extensions/ERC721URIStorage.sol';\nimport \"@openzeppelin/contracts/utils/Counters.sol\";\nimport \"@openzeppelin/contracts/utils/Strings.sol\";\n\ncontract Parcel is ERC721, ERC721Enumerable, ERC721URIStorage {\n    using Counters for Counters.Counter;\n    Counters.Counter private _tokenIds;\n\n    constructor() ERC721(\"Parcel Token\", \"PARCEL\") {\n    }\n\n    function discover(address _to, string memory uuid) public returns(uint256) {\n        _tokenIds.increment();\n        uint256 discoveredId = _tokenIds.current();\n        _safeMint(_to, discoveredId);\n        _setTokenURI(discoveredId, uuid);\n        return discoveredId;\n    }\n\n    function _beforeTokenTransfer(address from, address to, uint256 tokenId) internal override(ERC721, ERC721Enumerable) {\n        super._beforeTokenTransfer(from, to, tokenId);\n    }\n\n    function _burn(uint256 tokenId) internal override(ERC721, ERC721URIStorage) {\n        super._burn(tokenId);\n    }\n\n    function tokenURI(uint256 tokenId)\n        public\n        view\n        override(ERC721, ERC721URIStorage)\n        returns (string memory)\n    {\n        return super.tokenURI(tokenId);\n    }\n\n    function supportsInterface(bytes4 interfaceId)\n        public\n        view\n        override(ERC721, ERC721Enumerable)\n        returns (bool)\n    {\n        return super.supportsInterface(interfaceId);\n    }\n\n    function _baseURI() internal pure override returns (string memory) {\n        return \"https://storage.googleapis.com/parcel-metadata/\";\n    }\n}\n",
  "sourcePath": "/Users/brianbroeking/projects/columbus/contracts/Parcel.sol",
  "compiler": {
    "name": "solc",
    "version": "0.8.5+commit.a4f2e591.Emscripten.clang"
  },
  "schemaVersion": "3.4.0",
  "updatedAt": "2021-06-21T01:47:54.698Z",
  "networkType": "ethereum",
  "devdoc": {
    "kind": "dev",
    "methods": {
      "approve(address,uint256)": {
        "details": "See {IERC721-approve}."
      },
      "balanceOf(address)": {
        "details": "See {IERC721-balanceOf}."
      },
      "getApproved(uint256)": {
        "details": "See {IERC721-getApproved}."
      },
      "isApprovedForAll(address,address)": {
        "details": "See {IERC721-isApprovedForAll}."
      },
      "name()": {
        "details": "See {IERC721Metadata-name}."
      },
      "ownerOf(uint256)": {
        "details": "See {IERC721-ownerOf}."
      },
      "safeTransferFrom(address,address,uint256)": {
        "details": "See {IERC721-safeTransferFrom}."
      },
      "safeTransferFrom(address,address,uint256,bytes)": {
        "details": "See {IERC721-safeTransferFrom}."
      },
      "setApprovalForAll(address,bool)": {
        "details": "See {IERC721-setApprovalForAll}."
      },
      "symbol()": {
        "details": "See {IERC721Metadata-symbol}."
      },
      "tokenByIndex(uint256)": {
        "details": "See {IERC721Enumerable-tokenByIndex}."
      },
      "tokenOfOwnerByIndex(address,uint256)": {
        "details": "See {IERC721Enumerable-tokenOfOwnerByIndex}."
      },
      "totalSupply()": {
        "details": "See {IERC721Enumerable-totalSupply}."
      },
      "transferFrom(address,address,uint256)": {
        "details": "See {IERC721-transferFrom}."
      }
    },
    "version": 1
  },
  "userdoc": {
    "kind": "user",
    "methods": {},
    "version": 1
  }
}