{
  "_format": "hh-sol-artifact-1",
  "contractName": "Parcel",
  "sourceName": "contracts/Parcel.sol",
  "abi": [
    {
      "inputs": [
        {
          "internalType": "string",
          "name": "name",
          "type": "string"
        },
        {
          "internalType": "string",
          "name": "symbol",
          "type": "string"
        }
      ],
      "stateMutability": "nonpayable",
      "type": "constructor"
    },
    {
      "anonymous": false,
      "inputs": [
        {
          "indexed": true,
          "internalType": "address",
          "name": "owner",
          "type": "address"
        },
        {
          "indexed": true,
          "internalType": "address",
          "name": "approved",
          "type": "address"
        },
        {
          "indexed": true,
          "internalType": "uint256",
          "name": "tokenId",
          "type": "uint256"
        }
      ],
      "name": "Approval",
      "type": "event"
    },
    {
      "anonymous": false,
      "inputs": [
        {
          "indexed": true,
          "internalType": "address",
          "name": "owner",
          "type": "address"
        },
        {
          "indexed": true,
          "internalType": "address",
          "name": "operator",
          "type": "address"
        },
        {
          "indexed": false,
          "internalType": "bool",
          "name": "approved",
          "type": "bool"
        }
      ],
      "name": "ApprovalForAll",
      "type": "event"
    },
    {
      "anonymous": false,
      "inputs": [
        {
          "indexed": true,
          "internalType": "bytes32",
          "name": "role",
          "type": "bytes32"
        },
        {
          "indexed": true,
          "internalType": "bytes32",
          "name": "previousAdminRole",
          "type": "bytes32"
        },
        {
          "indexed": true,
          "internalType": "bytes32",
          "name": "newAdminRole",
          "type": "bytes32"
        }
      ],
      "name": "RoleAdminChanged",
      "type": "event"
    },
    {
      "anonymous": false,
      "inputs": [
        {
          "indexed": true,
          "internalType": "bytes32",
          "name": "role",
          "type": "bytes32"
        },
        {
          "indexed": true,
          "internalType": "address",
          "name": "account",
          "type": "address"
        },
        {
          "indexed": true,
          "internalType": "address",
          "name": "sender",
          "type": "address"
        }
      ],
      "name": "RoleGranted",
      "type": "event"
    },
    {
      "anonymous": false,
      "inputs": [
        {
          "indexed": true,
          "internalType": "bytes32",
          "name": "role",
          "type": "bytes32"
        },
        {
          "indexed": true,
          "internalType": "address",
          "name": "account",
          "type": "address"
        },
        {
          "indexed": true,
          "internalType": "address",
          "name": "sender",
          "type": "address"
        }
      ],
      "name": "RoleRevoked",
      "type": "event"
    },
    {
      "anonymous": false,
      "inputs": [
        {
          "indexed": true,
          "internalType": "address",
          "name": "from",
          "type": "address"
        },
        {
          "indexed": true,
          "internalType": "address",
          "name": "to",
          "type": "address"
        },
        {
          "indexed": true,
          "internalType": "uint256",
          "name": "tokenId",
          "type": "uint256"
        }
      ],
      "name": "Transfer",
      "type": "event"
    },
    {
      "inputs": [],
      "name": "DEFAULT_ADMIN_ROLE",
      "outputs": [
        {
          "internalType": "bytes32",
          "name": "",
          "type": "bytes32"
        }
      ],
      "stateMutability": "view",
      "type": "function"
    },
    {
      "inputs": [],
      "name": "MINTER_ROLE",
      "outputs": [
        {
          "internalType": "bytes32",
          "name": "",
          "type": "bytes32"
        }
      ],
      "stateMutability": "view",
      "type": "function"
    },
    {
      "inputs": [
        {
          "internalType": "address",
          "name": "to",
          "type": "address"
        },
        {
          "internalType": "uint256",
          "name": "tokenId",
          "type": "uint256"
        }
      ],
      "name": "approve",
      "outputs": [],
      "stateMutability": "nonpayable",
      "type": "function"
    },
    {
      "inputs": [
        {
          "internalType": "address",
          "name": "owner",
          "type": "address"
        }
      ],
      "name": "balanceOf",
      "outputs": [
        {
          "internalType": "uint256",
          "name": "",
          "type": "uint256"
        }
      ],
      "stateMutability": "view",
      "type": "function"
    },
    {
      "inputs": [
        {
          "internalType": "uint256",
          "name": "tokenId",
          "type": "uint256"
        }
      ],
      "name": "getApproved",
      "outputs": [
        {
          "internalType": "address",
          "name": "",
          "type": "address"
        }
      ],
      "stateMutability": "view",
      "type": "function"
    },
    {
      "inputs": [
        {
          "internalType": "bytes32",
          "name": "role",
          "type": "bytes32"
        }
      ],
      "name": "getRoleAdmin",
      "outputs": [
        {
          "internalType": "bytes32",
          "name": "",
          "type": "bytes32"
        }
      ],
      "stateMutability": "view",
      "type": "function"
    },
    {
      "inputs": [
        {
          "internalType": "bytes32",
          "name": "role",
          "type": "bytes32"
        },
        {
          "internalType": "address",
          "name": "account",
          "type": "address"
        }
      ],
      "name": "grantRole",
      "outputs": [],
      "stateMutability": "nonpayable",
      "type": "function"
    },
    {
      "inputs": [
        {
          "internalType": "bytes32",
          "name": "role",
          "type": "bytes32"
        },
        {
          "internalType": "address",
          "name": "account",
          "type": "address"
        }
      ],
      "name": "hasRole",
      "outputs": [
        {
          "internalType": "bool",
          "name": "",
          "type": "bool"
        }
      ],
      "stateMutability": "view",
      "type": "function"
    },
    {
      "inputs": [
        {
          "internalType": "address",
          "name": "owner",
          "type": "address"
        },
        {
          "internalType": "address",
          "name": "operator",
          "type": "address"
        }
      ],
      "name": "isApprovedForAll",
      "outputs": [
        {
          "internalType": "bool",
          "name": "",
          "type": "bool"
        }
      ],
      "stateMutability": "view",
      "type": "function"
    },
    {
      "inputs": [],
      "name": "name",
      "outputs": [
        {
          "internalType": "string",
          "name": "",
          "type": "string"
        }
      ],
      "stateMutability": "view",
      "type": "function"
    },
    {
      "inputs": [
        {
          "internalType": "uint256",
          "name": "tokenId",
          "type": "uint256"
        }
      ],
      "name": "ownerOf",
      "outputs": [
        {
          "internalType": "address",
          "name": "",
          "type": "address"
        }
      ],
      "stateMutability": "view",
      "type": "function"
    },
    {
      "inputs": [
        {
          "internalType": "address",
          "name": "account",
          "type": "address"
        },
        {
          "internalType": "uint256",
          "name": "tokenId",
          "type": "uint256"
        },
        {
          "internalType": "bytes",
          "name": "signature",
          "type": "bytes"
        }
      ],
      "name": "redeem",
      "outputs": [],
      "stateMutability": "nonpayable",
      "type": "function"
    },
    {
      "inputs": [
        {
          "internalType": "bytes32",
          "name": "role",
          "type": "bytes32"
        },
        {
          "internalType": "address",
          "name": "account",
          "type": "address"
        }
      ],
      "name": "renounceRole",
      "outputs": [],
      "stateMutability": "nonpayable",
      "type": "function"
    },
    {
      "inputs": [
        {
          "internalType": "bytes32",
          "name": "role",
          "type": "bytes32"
        },
        {
          "internalType": "address",
          "name": "account",
          "type": "address"
        }
      ],
      "name": "revokeRole",
      "outputs": [],
      "stateMutability": "nonpayable",
      "type": "function"
    },
    {
      "inputs": [
        {
          "internalType": "address",
          "name": "from",
          "type": "address"
        },
        {
          "internalType": "address",
          "name": "to",
          "type": "address"
        },
        {
          "internalType": "uint256",
          "name": "tokenId",
          "type": "uint256"
        }
      ],
      "name": "safeTransferFrom",
      "outputs": [],
      "stateMutability": "nonpayable",
      "type": "function"
    },
    {
      "inputs": [
        {
          "internalType": "address",
          "name": "from",
          "type": "address"
        },
        {
          "internalType": "address",
          "name": "to",
          "type": "address"
        },
        {
          "internalType": "uint256",
          "name": "tokenId",
          "type": "uint256"
        },
        {
          "internalType": "bytes",
          "name": "_data",
          "type": "bytes"
        }
      ],
      "name": "safeTransferFrom",
      "outputs": [],
      "stateMutability": "nonpayable",
      "type": "function"
    },
    {
      "inputs": [
        {
          "internalType": "address",
          "name": "operator",
          "type": "address"
        },
        {
          "internalType": "bool",
          "name": "approved",
          "type": "bool"
        }
      ],
      "name": "setApprovalForAll",
      "outputs": [],
      "stateMutability": "nonpayable",
      "type": "function"
    },
    {
      "inputs": [
        {
          "internalType": "bytes4",
          "name": "interfaceId",
          "type": "bytes4"
        }
      ],
      "name": "supportsInterface",
      "outputs": [
        {
          "internalType": "bool",
          "name": "",
          "type": "bool"
        }
      ],
      "stateMutability": "view",
      "type": "function"
    },
    {
      "inputs": [],
      "name": "symbol",
      "outputs": [
        {
          "internalType": "string",
          "name": "",
          "type": "string"
        }
      ],
      "stateMutability": "view",
      "type": "function"
    },
    {
      "inputs": [
        {
          "internalType": "uint256",
          "name": "index",
          "type": "uint256"
        }
      ],
      "name": "tokenByIndex",
      "outputs": [
        {
          "internalType": "uint256",
          "name": "",
          "type": "uint256"
        }
      ],
      "stateMutability": "view",
      "type": "function"
    },
    {
      "inputs": [
        {
          "internalType": "address",
          "name": "owner",
          "type": "address"
        },
        {
          "internalType": "uint256",
          "name": "index",
          "type": "uint256"
        }
      ],
      "name": "tokenOfOwnerByIndex",
      "outputs": [
        {
          "internalType": "uint256",
          "name": "",
          "type": "uint256"
        }
      ],
      "stateMutability": "view",
      "type": "function"
    },
    {
      "inputs": [
        {
          "internalType": "uint256",
          "name": "tokenId",
          "type": "uint256"
        }
      ],
      "name": "tokenURI",
      "outputs": [
        {
          "internalType": "string",
          "name": "",
          "type": "string"
        }
      ],
      "stateMutability": "view",
      "type": "function"
    },
    {
      "inputs": [],
      "name": "totalSupply",
      "outputs": [
        {
          "internalType": "uint256",
          "name": "",
          "type": "uint256"
        }
      ],
      "stateMutability": "view",
      "type": "function"
    },
    {
      "inputs": [
        {
          "internalType": "address",
          "name": "from",
          "type": "address"
        },
        {
          "internalType": "address",
          "name": "to",
          "type": "address"
        },
        {
          "internalType": "uint256",
          "name": "tokenId",
          "type": "uint256"
        }
      ],
      "name": "transferFrom",
      "outputs": [],
      "stateMutability": "nonpayable",
      "type": "function"
    }
  ],
  "bytecode": "0x6101206040523480156200001257600080fd5b5060405162004df438038062004df4833981810160405281019062000038919062000427565b816040518060400160405280600581526020017f312e302e30000000000000000000000000000000000000000000000000000000815250838381600090805190602001906200008992919062000305565b508060019080519060200190620000a292919062000305565b50505060008280519060200120905060008280519060200120905060007f8b73c3c69bb8fe3d512ecc4cf759cc79239f7b179b0ffacaa9a75d522b39400f90508260c081815250508160e081815250504660a081815250506200010d8184846200014e60201b60201c565b608081815250508061010081815250505050505050620001466000801b6200013a6200018a60201b60201c565b6200019260201b60201c565b5050620006e2565b600083838346306040516020016200016b959493929190620004cd565b6040516020818303038152906040528051906020012090509392505050565b600033905090565b620001a48282620001a860201b60201c565b5050565b620001ba82826200029a60201b60201c565b62000296576001600b600084815260200190815260200160002060000160008373ffffffffffffffffffffffffffffffffffffffff1673ffffffffffffffffffffffffffffffffffffffff16815260200190815260200160002060006101000a81548160ff0219169083151502179055506200023b6200018a60201b60201c565b73ffffffffffffffffffffffffffffffffffffffff168173ffffffffffffffffffffffffffffffffffffffff16837f2f8788117e7eff1d82e926ec794901d17c78024a50270940304540a733656f0d60405160405180910390a45b5050565b6000600b600084815260200190815260200160002060000160008373ffffffffffffffffffffffffffffffffffffffff1673ffffffffffffffffffffffffffffffffffffffff16815260200190815260200160002060009054906101000a900460ff16905092915050565b828054620003139062000607565b90600052602060002090601f01602090048101928262000337576000855562000383565b82601f106200035257805160ff191683800117855562000383565b8280016001018555821562000383579182015b828111156200038257825182559160200191906001019062000365565b5b50905062000392919062000396565b5090565b5b80821115620003b157600081600090555060010162000397565b5090565b6000620003cc620003c68462000553565b6200052a565b905082815260208101848484011115620003e557600080fd5b620003f2848285620005d1565b509392505050565b600082601f8301126200040c57600080fd5b81516200041e848260208601620003b5565b91505092915050565b600080604083850312156200043b57600080fd5b600083015167ffffffffffffffff8111156200045657600080fd5b6200046485828601620003fa565b925050602083015167ffffffffffffffff8111156200048257600080fd5b6200049085828601620003fa565b9150509250929050565b620004a58162000589565b82525050565b620004b6816200059d565b82525050565b620004c781620005c7565b82525050565b600060a082019050620004e46000830188620004ab565b620004f36020830187620004ab565b620005026040830186620004ab565b620005116060830185620004bc565b6200052060808301846200049a565b9695505050505050565b60006200053662000549565b90506200054482826200063d565b919050565b6000604051905090565b600067ffffffffffffffff821115620005715762000570620006a2565b5b6200057c82620006d1565b9050602081019050919050565b60006200059682620005a7565b9050919050565b6000819050919050565b600073ffffffffffffffffffffffffffffffffffffffff82169050919050565b6000819050919050565b60005b83811015620005f1578082015181840152602081019050620005d4565b8381111562000601576000848401525b50505050565b600060028204905060018216806200062057607f821691505b6020821081141562000637576200063662000673565b5b50919050565b6200064882620006d1565b810181811067ffffffffffffffff821117156200066a5762000669620006a2565b5b80604052505050565b7f4e487b7100000000000000000000000000000000000000000000000000000000600052602260045260246000fd5b7f4e487b7100000000000000000000000000000000000000000000000000000000600052604160045260246000fd5b6000601f19601f8301169050919050565b60805160a05160c05160e051610100516146cd620007276000396000612175015260006121b701526000612196015260006121220152600061214a01526146cd6000f3fe608060405234801561001057600080fd5b50600436106101585760003560e01c80634f6ccce7116100c3578063a22cb4651161007c578063a22cb465146103fd578063b88d4fde14610419578063c87b56dd14610435578063d539139314610465578063d547741f14610483578063e985e9c51461049f57610158565b80634f6ccce7146103015780636352211e1461033157806370a082311461036157806391d148541461039157806395d89b41146103c1578063a217fddf146103df57610158565b806323b872dd1161011557806323b872dd14610231578063248a9ca31461024d5780632f2ff15d1461027d5780632f745c591461029957806336568abe146102c957806342842e0e146102e557610158565b806301ffc9a71461015d57806306fdde031461018d578063081812fc146101ab578063095ea7b3146101db57806310badf4e146101f757806318160ddd14610213575b600080fd5b61017760048036038101906101729190613054565b6104cf565b6040516101849190613681565b60405180910390f35b6101956104e1565b6040516101a29190613786565b60405180910390f35b6101c560048036038101906101c091906130a6565b610573565b6040516101d2919061361a565b60405180910390f35b6101f560048036038101906101f09190612f47565b6105f8565b005b610211600480360381019061020c9190612f83565b610710565b005b61021b6107b6565b6040516102289190613aa8565b60405180910390f35b61024b60048036038101906102469190612e41565b6107c3565b005b61026760048036038101906102629190612fef565b610823565b604051610274919061369c565b60405180910390f35b61029760048036038101906102929190613018565b610843565b005b6102b360048036038101906102ae9190612f47565b61086c565b6040516102c09190613aa8565b60405180910390f35b6102e360048036038101906102de9190613018565b610911565b005b6102ff60048036038101906102fa9190612e41565b610994565b005b61031b600480360381019061031691906130a6565b6109b4565b6040516103289190613aa8565b60405180910390f35b61034b600480360381019061034691906130a6565b610a4b565b604051610358919061361a565b60405180910390f35b61037b60048036038101906103769190612ddc565b610afd565b6040516103889190613aa8565b60405180910390f35b6103ab60048036038101906103a69190613018565b610bb5565b6040516103b89190613681565b60405180910390f35b6103c9610c20565b6040516103d69190613786565b60405180910390f35b6103e7610cb2565b6040516103f4919061369c565b60405180910390f35b61041760048036038101906104129190612f0b565b610cb9565b005b610433600480360381019061042e9190612e90565b610e3a565b005b61044f600480360381019061044a91906130a6565b610e9c565b60405161045c9190613786565b60405180910390f35b61046d610eae565b60405161047a919061369c565b60405180910390f35b61049d60048036038101906104989190613018565b610ed2565b005b6104b960048036038101906104b49190612e05565b610efb565b6040516104c69190613681565b60405180910390f35b60006104da82610f8f565b9050919050565b6060600080546104f090613d68565b80601f016020809104026020016040519081016040528092919081815260200182805461051c90613d68565b80156105695780601f1061053e57610100808354040283529160200191610569565b820191906000526020600020905b81548152906001019060200180831161054c57829003601f168201915b5050505050905090565b600061057e82611009565b6105bd576040517f08c379a00000000000000000000000000000000000000000000000000000000081526004016105b4906139c8565b60405180910390fd5b6004600083815260200190815260200160002060009054906101000a900473ffffffffffffffffffffffffffffffffffffffff169050919050565b600061060382610a4b565b90508073ffffffffffffffffffffffffffffffffffffffff168373ffffffffffffffffffffffffffffffffffffffff161415610674576040517f08c379a000000000000000000000000000000000000000000000000000000000815260040161066b90613a28565b60405180910390fd5b8073ffffffffffffffffffffffffffffffffffffffff16610693611075565b73ffffffffffffffffffffffffffffffffffffffff1614806106c257506106c1816106bc611075565b610efb565b5b610701576040517f08c379a00000000000000000000000000000000000000000000000000000000081526004016106f890613908565b60405180910390fd5b61070b838361107d565b505050565b61076761071d8585611136565b83838080601f016020809104026020016040519081016040528093929190818152602001838380828437600081840152601f19601f82011690508083019250505050505050611193565b6107a6576040517f08c379a000000000000000000000000000000000000000000000000000000000815260040161079d906138a8565b60405180910390fd5b6107b084846111d0565b50505050565b6000600880549050905090565b6107d46107ce611075565b826111ee565b610813576040517f08c379a000000000000000000000000000000000000000000000000000000000815260040161080a90613a48565b60405180910390fd5b61081e8383836112cc565b505050565b6000600b6000838152602001908152602001600020600101549050919050565b61084c82610823565b61085d81610858611075565b611528565b61086783836115c5565b505050565b600061087783610afd565b82106108b8576040517f08c379a00000000000000000000000000000000000000000000000000000000081526004016108af90613808565b60405180910390fd5b600660008473ffffffffffffffffffffffffffffffffffffffff1673ffffffffffffffffffffffffffffffffffffffff168152602001908152602001600020600083815260200190815260200160002054905092915050565b610919611075565b73ffffffffffffffffffffffffffffffffffffffff168173ffffffffffffffffffffffffffffffffffffffff1614610986576040517f08c379a000000000000000000000000000000000000000000000000000000000815260040161097d90613a88565b60405180910390fd5b61099082826116a6565b5050565b6109af83838360405180602001604052806000815250610e3a565b505050565b60006109be6107b6565b82106109ff576040517f08c379a00000000000000000000000000000000000000000000000000000000081526004016109f690613a68565b60405180910390fd5b60088281548110610a39577f4e487b7100000000000000000000000000000000000000000000000000000000600052603260045260246000fd5b90600052602060002001549050919050565b6000806002600084815260200190815260200160002060009054906101000a900473ffffffffffffffffffffffffffffffffffffffff169050600073ffffffffffffffffffffffffffffffffffffffff168173ffffffffffffffffffffffffffffffffffffffff161415610af4576040517f08c379a0000000000000000000000000000000000000000000000000000000008152600401610aeb90613948565b60405180910390fd5b80915050919050565b60008073ffffffffffffffffffffffffffffffffffffffff168273ffffffffffffffffffffffffffffffffffffffff161415610b6e576040517f08c379a0000000000000000000000000000000000000000000000000000000008152600401610b6590613928565b60405180910390fd5b600360008373ffffffffffffffffffffffffffffffffffffffff1673ffffffffffffffffffffffffffffffffffffffff168152602001908152602001600020549050919050565b6000600b600084815260200190815260200160002060000160008373ffffffffffffffffffffffffffffffffffffffff1673ffffffffffffffffffffffffffffffffffffffff16815260200190815260200160002060009054906101000a900460ff16905092915050565b606060018054610c2f90613d68565b80601f0160208091040260200160405190810160405280929190818152602001828054610c5b90613d68565b8015610ca85780601f10610c7d57610100808354040283529160200191610ca8565b820191906000526020600020905b815481529060010190602001808311610c8b57829003601f168201915b5050505050905090565b6000801b81565b610cc1611075565b73ffffffffffffffffffffffffffffffffffffffff168273ffffffffffffffffffffffffffffffffffffffff161415610d2f576040517f08c379a0000000000000000000000000000000000000000000000000000000008152600401610d2690613888565b60405180910390fd5b8060056000610d3c611075565b73ffffffffffffffffffffffffffffffffffffffff1673ffffffffffffffffffffffffffffffffffffffff16815260200190815260200160002060008473ffffffffffffffffffffffffffffffffffffffff1673ffffffffffffffffffffffffffffffffffffffff16815260200190815260200160002060006101000a81548160ff0219169083151502179055508173ffffffffffffffffffffffffffffffffffffffff16610de9611075565b73ffffffffffffffffffffffffffffffffffffffff167f17307eab39ab6107e8899845ad3d59bd9653f200f220920489ca2b5937696c3183604051610e2e9190613681565b60405180910390a35050565b610e4b610e45611075565b836111ee565b610e8a576040517f08c379a0000000000000000000000000000000000000000000000000000000008152600401610e8190613a48565b60405180910390fd5b610e9684848484611788565b50505050565b6060610ea7826117e4565b9050919050565b7f9f2df0fed2c77648de5860a4cc508cd0818c85b8b8a1ab4ceeef8d981c8956a681565b610edb82610823565b610eec81610ee7611075565b611528565b610ef683836116a6565b505050565b6000600560008473ffffffffffffffffffffffffffffffffffffffff1673ffffffffffffffffffffffffffffffffffffffff16815260200190815260200160002060008373ffffffffffffffffffffffffffffffffffffffff1673ffffffffffffffffffffffffffffffffffffffff16815260200190815260200160002060009054906101000a900460ff16905092915050565b60007f7965db0b000000000000000000000000000000000000000000000000000000007bffffffffffffffffffffffffffffffffffffffffffffffffffffffff1916827bffffffffffffffffffffffffffffffffffffffffffffffffffffffff19161480611002575061100182611936565b5b9050919050565b60008073ffffffffffffffffffffffffffffffffffffffff166002600084815260200190815260200160002060009054906101000a900473ffffffffffffffffffffffffffffffffffffffff1673ffffffffffffffffffffffffffffffffffffffff1614159050919050565b600033905090565b816004600083815260200190815260200160002060006101000a81548173ffffffffffffffffffffffffffffffffffffffff021916908373ffffffffffffffffffffffffffffffffffffffff160217905550808273ffffffffffffffffffffffffffffffffffffffff166110f083610a4b565b73ffffffffffffffffffffffffffffffffffffffff167f8c5be1e5ebec7d5bd14f71427d1e84f3dd0314c0f7b2291e5b200ac8c7c3b92560405160405180910390a45050565b600061118b7fd2510b574f5316b76c0690d108b48cde7a2a76bf4fc13fae79898e5251d0082e83856040516020016111709392919061370a565b604051602081830303815290604052805190602001206119b0565b905092915050565b60006111c87f9f2df0fed2c77648de5860a4cc508cd0818c85b8b8a1ab4ceeef8d981c8956a66111c385856119ca565b610bb5565b905092915050565b6111ea828260405180602001604052806000815250611a79565b5050565b60006111f982611009565b611238576040517f08c379a000000000000000000000000000000000000000000000000000000000815260040161122f906138e8565b60405180910390fd5b600061124383610a4b565b90508073ffffffffffffffffffffffffffffffffffffffff168473ffffffffffffffffffffffffffffffffffffffff1614806112b257508373ffffffffffffffffffffffffffffffffffffffff1661129a84610573565b73ffffffffffffffffffffffffffffffffffffffff16145b806112c357506112c28185610efb565b5b91505092915050565b8273ffffffffffffffffffffffffffffffffffffffff166112ec82610a4b565b73ffffffffffffffffffffffffffffffffffffffff1614611342576040517f08c379a0000000000000000000000000000000000000000000000000000000008152600401611339906139e8565b60405180910390fd5b600073ffffffffffffffffffffffffffffffffffffffff168273ffffffffffffffffffffffffffffffffffffffff1614156113b2576040517f08c379a00000000000000000000000000000000000000000000000000000000081526004016113a990613868565b60405180910390fd5b6113bd838383611ad4565b6113c860008261107d565b6001600360008573ffffffffffffffffffffffffffffffffffffffff1673ffffffffffffffffffffffffffffffffffffffff16815260200190815260200160002060008282546114189190613c3d565b925050819055506001600360008473ffffffffffffffffffffffffffffffffffffffff1673ffffffffffffffffffffffffffffffffffffffff168152602001908152602001600020600082825461146f9190613b5c565b92505081905550816002600083815260200190815260200160002060006101000a81548173ffffffffffffffffffffffffffffffffffffffff021916908373ffffffffffffffffffffffffffffffffffffffff160217905550808273ffffffffffffffffffffffffffffffffffffffff168473ffffffffffffffffffffffffffffffffffffffff167fddf252ad1be2c89b69c2b068fc378daa952ba7f163c4a11628f55a4df523b3ef60405160405180910390a4505050565b6115328282610bb5565b6115c1576115578173ffffffffffffffffffffffffffffffffffffffff166014611ae4565b6115658360001c6020611ae4565b6040516020016115769291906135e0565b6040516020818303038152906040526040517f08c379a00000000000000000000000000000000000000000000000000000000081526004016115b89190613786565b60405180910390fd5b5050565b6115cf8282610bb5565b6116a2576001600b600084815260200190815260200160002060000160008373ffffffffffffffffffffffffffffffffffffffff1673ffffffffffffffffffffffffffffffffffffffff16815260200190815260200160002060006101000a81548160ff021916908315150217905550611647611075565b73ffffffffffffffffffffffffffffffffffffffff168173ffffffffffffffffffffffffffffffffffffffff16837f2f8788117e7eff1d82e926ec794901d17c78024a50270940304540a733656f0d60405160405180910390a45b5050565b6116b08282610bb5565b15611784576000600b600084815260200190815260200160002060000160008373ffffffffffffffffffffffffffffffffffffffff1673ffffffffffffffffffffffffffffffffffffffff16815260200190815260200160002060006101000a81548160ff021916908315150217905550611729611075565b73ffffffffffffffffffffffffffffffffffffffff168173ffffffffffffffffffffffffffffffffffffffff16837ff6391f5c32d9c69d2a47ea670b442974b53935d1edc7fd64eb21e047a839171b60405160405180910390a45b5050565b6117938484846112cc565b61179f84848484611dde565b6117de576040517f08c379a00000000000000000000000000000000000000000000000000000000081526004016117d590613828565b60405180910390fd5b50505050565b60606117ef82611009565b61182e576040517f08c379a0000000000000000000000000000000000000000000000000000000008152600401611825906139a8565b60405180910390fd5b6000600a6000848152602001908152602001600020805461184e90613d68565b80601f016020809104026020016040519081016040528092919081815260200182805461187a90613d68565b80156118c75780601f1061189c576101008083540402835291602001916118c7565b820191906000526020600020905b8154815290600101906020018083116118aa57829003601f168201915b5050505050905060006118d8611f75565b90506000815114156118ee578192505050611931565b60008251111561192357808260405160200161190b929190613585565b60405160208183030381529060405292505050611931565b61192c84611f95565b925050505b919050565b60007f780e9d63000000000000000000000000000000000000000000000000000000007bffffffffffffffffffffffffffffffffffffffffffffffffffffffff1916827bffffffffffffffffffffffffffffffffffffffffffffffffffffffff191614806119a957506119a88261203c565b5b9050919050565b60006119c36119bd61211e565b836121e1565b9050919050565b6000604182511415611a095760008060006020850151925060408501519150606085015160001a90506119ff86828585612214565b9350505050611a73565b604082511415611a38576000806020840151915060408401519050611a2f85838361239f565b92505050611a73565b6040517f08c379a0000000000000000000000000000000000000000000000000000000008152600401611a6a906137e8565b60405180910390fd5b92915050565b611a8383836123e9565b611a906000848484611dde565b611acf576040517f08c379a0000000000000000000000000000000000000000000000000000000008152600401611ac690613828565b60405180910390fd5b505050565b611adf8383836125b7565b505050565b606060006002836002611af79190613be3565b611b019190613b5c565b67ffffffffffffffff811115611b40577f4e487b7100000000000000000000000000000000000000000000000000000000600052604160045260246000fd5b6040519080825280601f01601f191660200182016040528015611b725781602001600182028036833780820191505090505b5090507f300000000000000000000000000000000000000000000000000000000000000081600081518110611bd0577f4e487b7100000000000000000000000000000000000000000000000000000000600052603260045260246000fd5b60200101907effffffffffffffffffffffffffffffffffffffffffffffffffffffffffffff1916908160001a9053507f780000000000000000000000000000000000000000000000000000000000000081600181518110611c5a577f4e487b7100000000000000000000000000000000000000000000000000000000600052603260045260246000fd5b60200101907effffffffffffffffffffffffffffffffffffffffffffffffffffffffffffff1916908160001a90535060006001846002611c9a9190613be3565b611ca49190613b5c565b90505b6001811115611d90577f3031323334353637383961626364656600000000000000000000000000000000600f861660108110611d0c577f4e487b7100000000000000000000000000000000000000000000000000000000600052603260045260246000fd5b1a60f81b828281518110611d49577f4e487b7100000000000000000000000000000000000000000000000000000000600052603260045260246000fd5b60200101907effffffffffffffffffffffffffffffffffffffffffffffffffffffffffffff1916908160001a905350600485901c945080611d8990613d3e565b9050611ca7565b5060008414611dd4576040517f08c379a0000000000000000000000000000000000000000000000000000000008152600401611dcb906137c8565b60405180910390fd5b8091505092915050565b6000611dff8473ffffffffffffffffffffffffffffffffffffffff166126cb565b15611f68578373ffffffffffffffffffffffffffffffffffffffff1663150b7a02611e28611075565b8786866040518563ffffffff1660e01b8152600401611e4a9493929190613635565b602060405180830381600087803b158015611e6457600080fd5b505af1925050508015611e9557506040513d601f19601f82011682018060405250810190611e92919061307d565b60015b611f18573d8060008114611ec5576040519150601f19603f3d011682016040523d82523d6000602084013e611eca565b606091505b50600081511415611f10576040517f08c379a0000000000000000000000000000000000000000000000000000000008152600401611f0790613828565b60405180910390fd5b805181602001fd5b63150b7a0260e01b7bffffffffffffffffffffffffffffffffffffffffffffffffffffffff1916817bffffffffffffffffffffffffffffffffffffffffffffffffffffffff191614915050611f6d565b600190505b949350505050565b60606040518060600160405280602f8152602001614669602f9139905090565b6060611fa082611009565b611fdf576040517f08c379a0000000000000000000000000000000000000000000000000000000008152600401611fd690613a08565b60405180910390fd5b6000611fe9611f75565b905060008151116120095760405180602001604052806000815250612034565b80612013846126de565b604051602001612024929190613585565b6040516020818303038152906040525b915050919050565b60007f80ac58cd000000000000000000000000000000000000000000000000000000007bffffffffffffffffffffffffffffffffffffffffffffffffffffffff1916827bffffffffffffffffffffffffffffffffffffffffffffffffffffffff1916148061210757507f5b5e139f000000000000000000000000000000000000000000000000000000007bffffffffffffffffffffffffffffffffffffffffffffffffffffffff1916827bffffffffffffffffffffffffffffffffffffffffffffffffffffffff1916145b8061211757506121168261288b565b5b9050919050565b60007f0000000000000000000000000000000000000000000000000000000000000000461415612170577f000000000000000000000000000000000000000000000000000000000000000090506121de565b6121db7f00000000000000000000000000000000000000000000000000000000000000007f00000000000000000000000000000000000000000000000000000000000000007f00000000000000000000000000000000000000000000000000000000000000006128f5565b90505b90565b600082826040516020016121f69291906135a9565b60405160208183030381529060405280519060200120905092915050565b60007f7fffffffffffffffffffffffffffffff5d576e7357a4501ddfe92f46681b20a08260001c111561227c576040517f08c379a0000000000000000000000000000000000000000000000000000000008152600401612273906138c8565b60405180910390fd5b601b8460ff1614806122915750601c8460ff16145b6122d0576040517f08c379a00000000000000000000000000000000000000000000000000000000081526004016122c790613968565b60405180910390fd5b6000600186868686604051600081526020016040526040516122f59493929190613741565b6020604051602081039080840390855afa158015612317573d6000803e3d6000fd5b505050602060405103519050600073ffffffffffffffffffffffffffffffffffffffff168173ffffffffffffffffffffffffffffffffffffffff161415612393576040517f08c379a000000000000000000000000000000000000000000000000000000000815260040161238a906137a8565b60405180910390fd5b80915050949350505050565b60008060007f7fffffffffffffffffffffffffffffffffffffffffffffffffffffffffffffff84169150601b8460ff1c0190506123de86828785612214565b925050509392505050565b600073ffffffffffffffffffffffffffffffffffffffff168273ffffffffffffffffffffffffffffffffffffffff161415612459576040517f08c379a000000000000000000000000000000000000000000000000000000000815260040161245090613988565b60405180910390fd5b61246281611009565b156124a2576040517f08c379a000000000000000000000000000000000000000000000000000000000815260040161249990613848565b60405180910390fd5b6124ae60008383611ad4565b6001600360008473ffffffffffffffffffffffffffffffffffffffff1673ffffffffffffffffffffffffffffffffffffffff16815260200190815260200160002060008282546124fe9190613b5c565b92505081905550816002600083815260200190815260200160002060006101000a81548173ffffffffffffffffffffffffffffffffffffffff021916908373ffffffffffffffffffffffffffffffffffffffff160217905550808273ffffffffffffffffffffffffffffffffffffffff16600073ffffffffffffffffffffffffffffffffffffffff167fddf252ad1be2c89b69c2b068fc378daa952ba7f163c4a11628f55a4df523b3ef60405160405180910390a45050565b6125c283838361292f565b600073ffffffffffffffffffffffffffffffffffffffff168373ffffffffffffffffffffffffffffffffffffffff1614156126055761260081612934565b612644565b8173ffffffffffffffffffffffffffffffffffffffff168373ffffffffffffffffffffffffffffffffffffffff161461264357612642838261297d565b5b5b600073ffffffffffffffffffffffffffffffffffffffff168273ffffffffffffffffffffffffffffffffffffffff1614156126875761268281612aea565b6126c6565b8273ffffffffffffffffffffffffffffffffffffffff168273ffffffffffffffffffffffffffffffffffffffff16146126c5576126c48282612c2d565b5b5b505050565b600080823b905060008111915050919050565b60606000821415612726576040518060400160405280600181526020017f30000000000000000000000000000000000000000000000000000000000000008152509050612886565b600082905060005b6000821461275857808061274190613dcb565b915050600a826127519190613bb2565b915061272e565b60008167ffffffffffffffff81111561279a577f4e487b7100000000000000000000000000000000000000000000000000000000600052604160045260246000fd5b6040519080825280601f01601f1916602001820160405280156127cc5781602001600182028036833780820191505090505b5090505b6000851461287f576001826127e59190613c3d565b9150600a856127f49190613e1e565b60306128009190613b5c565b60f81b81838151811061283c577f4e487b7100000000000000000000000000000000000000000000000000000000600052603260045260246000fd5b60200101907effffffffffffffffffffffffffffffffffffffffffffffffffffffffffffff1916908160001a905350600a856128789190613bb2565b94506127d0565b8093505050505b919050565b60007f01ffc9a7000000000000000000000000000000000000000000000000000000007bffffffffffffffffffffffffffffffffffffffffffffffffffffffff1916827bffffffffffffffffffffffffffffffffffffffffffffffffffffffff1916149050919050565b600083838346306040516020016129109594939291906136b7565b6040516020818303038152906040528051906020012090509392505050565b505050565b6008805490506009600083815260200190815260200160002081905550600881908060018154018082558091505060019003906000526020600020016000909190919091505550565b6000600161298a84610afd565b6129949190613c3d565b9050600060076000848152602001908152602001600020549050818114612a79576000600660008673ffffffffffffffffffffffffffffffffffffffff1673ffffffffffffffffffffffffffffffffffffffff168152602001908152602001600020600084815260200190815260200160002054905080600660008773ffffffffffffffffffffffffffffffffffffffff1673ffffffffffffffffffffffffffffffffffffffff168152602001908152602001600020600084815260200190815260200160002081905550816007600083815260200190815260200160002081905550505b6007600084815260200190815260200160002060009055600660008573ffffffffffffffffffffffffffffffffffffffff1673ffffffffffffffffffffffffffffffffffffffff16815260200190815260200160002060008381526020019081526020016000206000905550505050565b60006001600880549050612afe9190613c3d565b9050600060096000848152602001908152602001600020549050600060088381548110612b54577f4e487b7100000000000000000000000000000000000000000000000000000000600052603260045260246000fd5b906000526020600020015490508060088381548110612b9c577f4e487b7100000000000000000000000000000000000000000000000000000000600052603260045260246000fd5b906000526020600020018190555081600960008381526020019081526020016000208190555060096000858152602001908152602001600020600090556008805480612c11577f4e487b7100000000000000000000000000000000000000000000000000000000600052603160045260246000fd5b6001900381819060005260206000200160009055905550505050565b6000612c3883610afd565b905081600660008573ffffffffffffffffffffffffffffffffffffffff1673ffffffffffffffffffffffffffffffffffffffff168152602001908152602001600020600083815260200190815260200160002081905550806007600084815260200190815260200160002081905550505050565b6000612cbf612cba84613ae8565b613ac3565b905082815260208101848484011115612cd757600080fd5b612ce2848285613cfc565b509392505050565b600081359050612cf9816145f5565b92915050565b600081359050612d0e8161460c565b92915050565b600081359050612d2381614623565b92915050565b600081359050612d388161463a565b92915050565b600081519050612d4d8161463a565b92915050565b60008083601f840112612d6557600080fd5b8235905067ffffffffffffffff811115612d7e57600080fd5b602083019150836001820283011115612d9657600080fd5b9250929050565b600082601f830112612dae57600080fd5b8135612dbe848260208601612cac565b91505092915050565b600081359050612dd681614651565b92915050565b600060208284031215612dee57600080fd5b6000612dfc84828501612cea565b91505092915050565b60008060408385031215612e1857600080fd5b6000612e2685828601612cea565b9250506020612e3785828601612cea565b9150509250929050565b600080600060608486031215612e5657600080fd5b6000612e6486828701612cea565b9350506020612e7586828701612cea565b9250506040612e8686828701612dc7565b9150509250925092565b60008060008060808587031215612ea657600080fd5b6000612eb487828801612cea565b9450506020612ec587828801612cea565b9350506040612ed687828801612dc7565b925050606085013567ffffffffffffffff811115612ef357600080fd5b612eff87828801612d9d565b91505092959194509250565b60008060408385031215612f1e57600080fd5b6000612f2c85828601612cea565b9250506020612f3d85828601612cff565b9150509250929050565b60008060408385031215612f5a57600080fd5b6000612f6885828601612cea565b9250506020612f7985828601612dc7565b9150509250929050565b60008060008060608587031215612f9957600080fd5b6000612fa787828801612cea565b9450506020612fb887828801612dc7565b935050604085013567ffffffffffffffff811115612fd557600080fd5b612fe187828801612d53565b925092505092959194509250565b60006020828403121561300157600080fd5b600061300f84828501612d14565b91505092915050565b6000806040838503121561302b57600080fd5b600061303985828601612d14565b925050602061304a85828601612cea565b9150509250929050565b60006020828403121561306657600080fd5b600061307484828501612d29565b91505092915050565b60006020828403121561308f57600080fd5b600061309d84828501612d3e565b91505092915050565b6000602082840312156130b857600080fd5b60006130c684828501612dc7565b91505092915050565b6130d881613c71565b82525050565b6130e781613c83565b82525050565b6130f681613c8f565b82525050565b61310d61310882613c8f565b613e14565b82525050565b600061311e82613b19565b6131288185613b2f565b9350613138818560208601613d0b565b61314181613f0b565b840191505092915050565b600061315782613b24565b6131618185613b40565b9350613171818560208601613d0b565b61317a81613f0b565b840191505092915050565b600061319082613b24565b61319a8185613b51565b93506131aa818560208601613d0b565b80840191505092915050565b60006131c3601883613b40565b91506131ce82613f1c565b602082019050919050565b60006131e6602083613b40565b91506131f182613f45565b602082019050919050565b6000613209601f83613b40565b915061321482613f6e565b602082019050919050565b600061322c602b83613b40565b915061323782613f97565b604082019050919050565b600061324f603283613b40565b915061325a82613fe6565b604082019050919050565b6000613272601c83613b40565b915061327d82614035565b602082019050919050565b6000613295600283613b51565b91506132a08261405e565b600282019050919050565b60006132b8602483613b40565b91506132c382614087565b604082019050919050565b60006132db601983613b40565b91506132e6826140d6565b602082019050919050565b60006132fe601183613b40565b9150613309826140ff565b602082019050919050565b6000613321602283613b40565b915061332c82614128565b604082019050919050565b6000613344602c83613b40565b915061334f82614177565b604082019050919050565b6000613367603883613b40565b9150613372826141c6565b604082019050919050565b600061338a602a83613b40565b915061339582614215565b604082019050919050565b60006133ad602983613b40565b91506133b882614264565b604082019050919050565b60006133d0602283613b40565b91506133db826142b3565b604082019050919050565b60006133f3602083613b40565b91506133fe82614302565b602082019050919050565b6000613416603183613b40565b91506134218261432b565b604082019050919050565b6000613439602c83613b40565b91506134448261437a565b604082019050919050565b600061345c602983613b40565b9150613467826143c9565b604082019050919050565b600061347f602f83613b40565b915061348a82614418565b604082019050919050565b60006134a2602183613b40565b91506134ad82614467565b604082019050919050565b60006134c5603183613b40565b91506134d0826144b6565b604082019050919050565b60006134e8602c83613b40565b91506134f382614505565b604082019050919050565b600061350b601783613b51565b915061351682614554565b601782019050919050565b600061352e601183613b51565b91506135398261457d565b601182019050919050565b6000613551602f83613b40565b915061355c826145a6565b604082019050919050565b61357081613ce5565b82525050565b61357f81613cef565b82525050565b60006135918285613185565b915061359d8284613185565b91508190509392505050565b60006135b482613288565b91506135c082856130fc565b6020820191506135d082846130fc565b6020820191508190509392505050565b60006135eb826134fe565b91506135f78285613185565b915061360282613521565b915061360e8284613185565b91508190509392505050565b600060208201905061362f60008301846130cf565b92915050565b600060808201905061364a60008301876130cf565b61365760208301866130cf565b6136646040830185613567565b81810360608301526136768184613113565b905095945050505050565b600060208201905061369660008301846130de565b92915050565b60006020820190506136b160008301846130ed565b92915050565b600060a0820190506136cc60008301886130ed565b6136d960208301876130ed565b6136e660408301866130ed565b6136f36060830185613567565b61370060808301846130cf565b9695505050505050565b600060608201905061371f60008301866130ed565b61372c6020830185613567565b61373960408301846130cf565b949350505050565b600060808201905061375660008301876130ed565b6137636020830186613576565b61377060408301856130ed565b61377d60608301846130ed565b95945050505050565b600060208201905081810360008301526137a0818461314c565b905092915050565b600060208201905081810360008301526137c1816131b6565b9050919050565b600060208201905081810360008301526137e1816131d9565b9050919050565b60006020820190508181036000830152613801816131fc565b9050919050565b600060208201905081810360008301526138218161321f565b9050919050565b6000602082019050818103600083015261384181613242565b9050919050565b6000602082019050818103600083015261386181613265565b9050919050565b60006020820190508181036000830152613881816132ab565b9050919050565b600060208201905081810360008301526138a1816132ce565b9050919050565b600060208201905081810360008301526138c1816132f1565b9050919050565b600060208201905081810360008301526138e181613314565b9050919050565b6000602082019050818103600083015261390181613337565b9050919050565b600060208201905081810360008301526139218161335a565b9050919050565b600060208201905081810360008301526139418161337d565b9050919050565b60006020820190508181036000830152613961816133a0565b9050919050565b60006020820190508181036000830152613981816133c3565b9050919050565b600060208201905081810360008301526139a1816133e6565b9050919050565b600060208201905081810360008301526139c181613409565b9050919050565b600060208201905081810360008301526139e18161342c565b9050919050565b60006020820190508181036000830152613a018161344f565b9050919050565b60006020820190508181036000830152613a2181613472565b9050919050565b60006020820190508181036000830152613a4181613495565b9050919050565b60006020820190508181036000830152613a61816134b8565b9050919050565b60006020820190508181036000830152613a81816134db565b9050919050565b60006020820190508181036000830152613aa181613544565b9050919050565b6000602082019050613abd6000830184613567565b92915050565b6000613acd613ade565b9050613ad98282613d9a565b919050565b6000604051905090565b600067ffffffffffffffff821115613b0357613b02613edc565b5b613b0c82613f0b565b9050602081019050919050565b600081519050919050565b600081519050919050565b600082825260208201905092915050565b600082825260208201905092915050565b600081905092915050565b6000613b6782613ce5565b9150613b7283613ce5565b9250827fffffffffffffffffffffffffffffffffffffffffffffffffffffffffffffffff03821115613ba757613ba6613e4f565b5b828201905092915050565b6000613bbd82613ce5565b9150613bc883613ce5565b925082613bd857613bd7613e7e565b5b828204905092915050565b6000613bee82613ce5565b9150613bf983613ce5565b9250817fffffffffffffffffffffffffffffffffffffffffffffffffffffffffffffffff0483118215151615613c3257613c31613e4f565b5b828202905092915050565b6000613c4882613ce5565b9150613c5383613ce5565b925082821015613c6657613c65613e4f565b5b828203905092915050565b6000613c7c82613cc5565b9050919050565b60008115159050919050565b6000819050919050565b60007fffffffff0000000000000000000000000000000000000000000000000000000082169050919050565b600073ffffffffffffffffffffffffffffffffffffffff82169050919050565b6000819050919050565b600060ff82169050919050565b82818337600083830152505050565b60005b83811015613d29578082015181840152602081019050613d0e565b83811115613d38576000848401525b50505050565b6000613d4982613ce5565b91506000821415613d5d57613d5c613e4f565b5b600182039050919050565b60006002820490506001821680613d8057607f821691505b60208210811415613d9457613d93613ead565b5b50919050565b613da382613f0b565b810181811067ffffffffffffffff82111715613dc257613dc1613edc565b5b80604052505050565b6000613dd682613ce5565b91507fffffffffffffffffffffffffffffffffffffffffffffffffffffffffffffffff821415613e0957613e08613e4f565b5b600182019050919050565b6000819050919050565b6000613e2982613ce5565b9150613e3483613ce5565b925082613e4457613e43613e7e565b5b828206905092915050565b7f4e487b7100000000000000000000000000000000000000000000000000000000600052601160045260246000fd5b7f4e487b7100000000000000000000000000000000000000000000000000000000600052601260045260246000fd5b7f4e487b7100000000000000000000000000000000000000000000000000000000600052602260045260246000fd5b7f4e487b7100000000000000000000000000000000000000000000000000000000600052604160045260246000fd5b6000601f19601f8301169050919050565b7f45434453413a20696e76616c6964207369676e61747572650000000000000000600082015250565b7f537472696e67733a20686578206c656e67746820696e73756666696369656e74600082015250565b7f45434453413a20696e76616c6964207369676e6174757265206c656e67746800600082015250565b7f455243373231456e756d657261626c653a206f776e657220696e646578206f7560008201527f74206f6620626f756e6473000000000000000000000000000000000000000000602082015250565b7f4552433732313a207472616e7366657220746f206e6f6e20455243373231526560008201527f63656976657220696d706c656d656e7465720000000000000000000000000000602082015250565b7f4552433732313a20746f6b656e20616c7265616479206d696e74656400000000600082015250565b7f1901000000000000000000000000000000000000000000000000000000000000600082015250565b7f4552433732313a207472616e7366657220746f20746865207a65726f2061646460008201527f7265737300000000000000000000000000000000000000000000000000000000602082015250565b7f4552433732313a20617070726f766520746f2063616c6c657200000000000000600082015250565b7f496e76616c6964207369676e6174757265000000000000000000000000000000600082015250565b7f45434453413a20696e76616c6964207369676e6174757265202773272076616c60008201527f7565000000000000000000000000000000000000000000000000000000000000602082015250565b7f4552433732313a206f70657261746f7220717565727920666f72206e6f6e657860008201527f697374656e7420746f6b656e0000000000000000000000000000000000000000602082015250565b7f4552433732313a20617070726f76652063616c6c6572206973206e6f74206f7760008201527f6e6572206e6f7220617070726f76656420666f7220616c6c0000000000000000602082015250565b7f4552433732313a2062616c616e636520717565727920666f7220746865207a6560008201527f726f206164647265737300000000000000000000000000000000000000000000602082015250565b7f4552433732313a206f776e657220717565727920666f72206e6f6e657869737460008201527f656e7420746f6b656e0000000000000000000000000000000000000000000000602082015250565b7f45434453413a20696e76616c6964207369676e6174757265202776272076616c60008201527f7565000000000000000000000000000000000000000000000000000000000000602082015250565b7f4552433732313a206d696e7420746f20746865207a65726f2061646472657373600082015250565b7f45524337323155524953746f726167653a2055524920717565727920666f722060008201527f6e6f6e6578697374656e7420746f6b656e000000000000000000000000000000602082015250565b7f4552433732313a20617070726f76656420717565727920666f72206e6f6e657860008201527f697374656e7420746f6b656e0000000000000000000000000000000000000000602082015250565b7f4552433732313a207472616e73666572206f6620746f6b656e2074686174206960008201527f73206e6f74206f776e0000000000000000000000000000000000000000000000602082015250565b7f4552433732314d657461646174613a2055524920717565727920666f72206e6f60008201527f6e6578697374656e7420746f6b656e0000000000000000000000000000000000602082015250565b7f4552433732313a20617070726f76616c20746f2063757272656e74206f776e6560008201527f7200000000000000000000000000000000000000000000000000000000000000602082015250565b7f4552433732313a207472616e736665722063616c6c6572206973206e6f74206f60008201527f776e6572206e6f7220617070726f766564000000000000000000000000000000602082015250565b7f455243373231456e756d657261626c653a20676c6f62616c20696e646578206f60008201527f7574206f6620626f756e64730000000000000000000000000000000000000000602082015250565b7f416363657373436f6e74726f6c3a206163636f756e7420000000000000000000600082015250565b7f206973206d697373696e6720726f6c6520000000000000000000000000000000600082015250565b7f416363657373436f6e74726f6c3a2063616e206f6e6c792072656e6f756e636560008201527f20726f6c657320666f722073656c660000000000000000000000000000000000602082015250565b6145fe81613c71565b811461460957600080fd5b50565b61461581613c83565b811461462057600080fd5b50565b61462c81613c8f565b811461463757600080fd5b50565b61464381613c99565b811461464e57600080fd5b50565b61465a81613ce5565b811461466557600080fd5b5056fe68747470733a2f2f73746f726167652e676f6f676c65617069732e636f6d2f70617263656c2d6d657461646174612fa26469706673582212206d16592c9d36cbb40d47a10f459295d88aa08b1f5c02bd837114e8c8b5be82ab64736f6c63430008040033",
  "linkReferences": {},
  "deployedLinkReferences": {}
}